{
    "contractName": "CoffeeSupplyChain",
    "abi": [
        {
            "constant": false,
            "inputs": [
                {
                    "name": "_batchNo",
                    "type": "address"
                },
                {
                    "name": "_quantity",
                    "type": "uint256"
                },
                {
                    "name": "_shipName",
                    "type": "string"
                },
                {
                    "name": "_shipNo",
                    "type": "string"
                },
                {
                    "name": "_transportInfo",
                    "type": "string"
                },
                {
                    "name": "_warehouseName",
                    "type": "string"
                },
                {
                    "name": "_warehouseAddress",
                    "type": "string"
                },
                {
                    "name": "_importerId",
                    "type": "uint256"
                }
            ],
            "name": "updateImporterData",
            "outputs": [
                {
                    "name": "",
                    "type": "bool"
                }
            ],
            "payable": false,
            "stateMutability": "nonpayable",
            "type": "function"
        },
        {
            "constant": true,
            "inputs": [
                {
                    "name": "_batchNo",
                    "type": "address"
                }
            ],
            "name": "getExporterData",
            "outputs": [
                {
                    "name": "quantity",
                    "type": "uint256"
                },
                {
                    "name": "destinationAddress",
                    "type": "string"
                },
                {
                    "name": "shipName",
                    "type": "string"
                },
                {
                    "name": "shipNo",
                    "type": "string"
                },
                {
                    "name": "departureDateTime",
                    "type": "uint256"
                },
                {
                    "name": "estimateDateTime",
                    "type": "uint256"
                },
                {
                    "name": "exporterId",
                    "type": "uint256"
                }
            ],
            "payable": false,
            "stateMutability": "view",
            "type": "function"
        },
        {
            "constant": false,
            "inputs": [
                {
                    "name": "_batchNo",
                    "type": "address"
                },
                {
                    "name": "_quantity",
                    "type": "uint256"
                },
                {
                    "name": "_destinationAddress",
                    "type": "string"
                },
                {
                    "name": "_shipName",
                    "type": "string"
                },
                {
                    "name": "_shipNo",
                    "type": "string"
                },
                {
                    "name": "_estimateDateTime",
                    "type": "uint256"
                },
                {
                    "name": "_exporterId",
                    "type": "uint256"
                }
            ],
            "name": "updateExporterData",
            "outputs": [
                {
                    "name": "",
                    "type": "bool"
                }
            ],
            "payable": false,
            "stateMutability": "nonpayable",
            "type": "function"
        },
        {
            "constant": false,
            "inputs": [
                {
                    "name": "_registrationNo",
                    "type": "string"
                },
                {
                    "name": "_farmerName",
                    "type": "string"
                },
                {
                    "name": "_farmAddress",
                    "type": "string"
                },
                {
                    "name": "_exporterName",
                    "type": "string"
                },
                {
                    "name": "_importerName",
                    "type": "string"
                }
            ],
            "name": "addBasicDetails",
            "outputs": [
                {
                    "name": "",
                    "type": "address"
                }
            ],
            "payable": false,
            "stateMutability": "nonpayable",
            "type": "function"
        },
        {
            "constant": true,
            "inputs": [
                {
                    "name": "_batchNo",
                    "type": "address"
                }
            ],
            "name": "getNextAction",
            "outputs": [
                {
                    "name": "action",
                    "type": "string"
                }
            ],
            "payable": false,
            "stateMutability": "view",
            "type": "function"
        },
        {
            "constant": false,
            "inputs": [],
            "name": "renounceOwnership",
            "outputs": [],
            "payable": false,
            "stateMutability": "nonpayable",
            "type": "function"
        },
        {
            "constant": true,
            "inputs": [
                {
                    "name": "_batchNo",
                    "type": "address"
                }
            ],
            "name": "getFarmInspectorData",
            "outputs": [
                {
                    "name": "coffeeFamily",
                    "type": "string"
                },
                {
                    "name": "typeOfSeed",
                    "type": "string"
                },
                {
                    "name": "fertilizerUsed",
                    "type": "string"
                }
            ],
            "payable": false,
            "stateMutability": "view",
            "type": "function"
        },
        {
            "constant": false,
            "inputs": [
                {
                    "name": "_batchNo",
                    "type": "address"
                },
                {
                    "name": "_coffeeFamily",
                    "type": "string"
                },
                {
                    "name": "_typeOfSeed",
                    "type": "string"
                },
                {
                    "name": "_fertilizerUsed",
                    "type": "string"
                }
            ],
            "name": "updateFarmInspectorData",
            "outputs": [
                {
                    "name": "",
                    "type": "bool"
                }
            ],
            "payable": false,
            "stateMutability": "nonpayable",
            "type": "function"
        },
        {
            "constant": false,
            "inputs": [
                {
                    "name": "_batchNo",
                    "type": "address"
                },
                {
                    "name": "_quantity",
                    "type": "uint256"
                },
                {
                    "name": "_temperature",
                    "type": "string"
                },
                {
                    "name": "_rostingDuration",
                    "type": "uint256"
                },
                {
                    "name": "_internalBatchNo",
                    "type": "string"
                },
                {
                    "name": "_packageDateTime",
                    "type": "uint256"
                },
                {
                    "name": "_processorName",
                    "type": "string"
                },
                {
                    "name": "_processorAddress",
                    "type": "string"
                }
            ],
            "name": "updateProcessorData",
            "outputs": [
                {
                    "name": "",
                    "type": "bool"
                }
            ],
            "payable": false,
            "stateMutability": "nonpayable",
            "type": "function"
        },
        {
            "constant": true,
            "inputs": [],
            "name": "owner",
            "outputs": [
                {
                    "name": "",
                    "type": "address"
                }
            ],
            "payable": false,
            "stateMutability": "view",
            "type": "function"
        },
        {
            "constant": true,
            "inputs": [
                {
                    "name": "_batchNo",
                    "type": "address"
                }
            ],
            "name": "getProcessorData",
            "outputs": [
                {
                    "name": "quantity",
                    "type": "uint256"
                },
                {
                    "name": "temperature",
                    "type": "string"
                },
                {
                    "name": "rostingDuration",
                    "type": "uint256"
                },
                {
                    "name": "internalBatchNo",
                    "type": "string"
                },
                {
                    "name": "packageDateTime",
                    "type": "uint256"
                },
                {
                    "name": "processorName",
                    "type": "string"
                },
                {
                    "name": "processorAddress",
                    "type": "string"
                }
            ],
            "payable": false,
            "stateMutability": "view",
            "type": "function"
        },
        {
            "constant": true,
            "inputs": [
                {
                    "name": "_batchNo",
                    "type": "address"
                }
            ],
            "name": "getHarvesterData",
            "outputs": [
                {
                    "name": "cropVariety",
                    "type": "string"
                },
                {
                    "name": "temperatureUsed",
                    "type": "string"
                },
                {
                    "name": "humidity",
                    "type": "string"
                }
            ],
            "payable": false,
            "stateMutability": "view",
            "type": "function"
        },
        {
            "constant": false,
            "inputs": [
                {
                    "name": "_batchNo",
                    "type": "address"
                },
                {
                    "name": "_cropVariety",
                    "type": "string"
                },
                {
                    "name": "_temperatureUsed",
                    "type": "string"
                },
                {
                    "name": "_humidity",
                    "type": "string"
                }
            ],
            "name": "updateHarvesterData",
            "outputs": [
                {
                    "name": "",
                    "type": "bool"
                }
            ],
            "payable": false,
            "stateMutability": "nonpayable",
            "type": "function"
        },
        {
            "constant": true,
            "inputs": [
                {
                    "name": "_batchNo",
                    "type": "address"
                }
            ],
            "name": "getBasicDetails",
            "outputs": [
                {
                    "name": "registrationNo",
                    "type": "string"
                },
                {
                    "name": "farmerName",
                    "type": "string"
                },
                {
                    "name": "farmAddress",
                    "type": "string"
                },
                {
                    "name": "exporterName",
                    "type": "string"
                },
                {
                    "name": "importerName",
                    "type": "string"
                }
            ],
            "payable": false,
            "stateMutability": "view",
            "type": "function"
        },
        {
            "constant": false,
            "inputs": [
                {
                    "name": "newOwner",
                    "type": "address"
                }
            ],
            "name": "transferOwnership",
            "outputs": [],
            "payable": false,
            "stateMutability": "nonpayable",
            "type": "function"
        },
        {
            "constant": true,
            "inputs": [
                {
                    "name": "_batchNo",
                    "type": "address"
                }
            ],
            "name": "getImporterData",
            "outputs": [
                {
                    "name": "quantity",
                    "type": "uint256"
                },
                {
                    "name": "shipName",
                    "type": "string"
                },
                {
                    "name": "shipNo",
                    "type": "string"
                },
                {
                    "name": "arrivalDateTime",
                    "type": "uint256"
                },
                {
                    "name": "transportInfo",
                    "type": "string"
                },
                {
                    "name": "warehouseName",
                    "type": "string"
                },
                {
                    "name": "warehouseAddress",
                    "type": "string"
                },
                {
                    "name": "importerId",
                    "type": "uint256"
                }
            ],
            "payable": false,
            "stateMutability": "view",
            "type": "function"
        },
        {
            "inputs": [
                {
                    "name": "_supplyChainAddress",
                    "type": "address"
                }
            ],
            "payable": false,
            "stateMutability": "nonpayable",
            "type": "constructor"
        },
        {
            "anonymous": false,
            "inputs": [
                {
                    "indexed": true,
                    "name": "user",
                    "type": "address"
                },
                {
                    "indexed": true,
                    "name": "batchNo",
                    "type": "address"
                }
            ],
            "name": "PerformCultivation",
            "type": "event"
        },
        {
            "anonymous": false,
            "inputs": [
                {
                    "indexed": true,
                    "name": "user",
                    "type": "address"
                },
                {
                    "indexed": true,
                    "name": "batchNo",
                    "type": "address"
                }
            ],
            "name": "DoneInspection",
            "type": "event"
        },
        {
            "anonymous": false,
            "inputs": [
                {
                    "indexed": true,
                    "name": "user",
                    "type": "address"
                },
                {
                    "indexed": true,
                    "name": "batchNo",
                    "type": "address"
                }
            ],
            "name": "DoneHarvesting",
            "type": "event"
        },
        {
            "anonymous": false,
            "inputs": [
                {
                    "indexed": true,
                    "name": "user",
                    "type": "address"
                },
                {
                    "indexed": true,
                    "name": "batchNo",
                    "type": "address"
                }
            ],
            "name": "DoneExporting",
            "type": "event"
        },
        {
            "anonymous": false,
            "inputs": [
                {
                    "indexed": true,
                    "name": "user",
                    "type": "address"
                },
                {
                    "indexed": true,
                    "name": "batchNo",
                    "type": "address"
                }
            ],
            "name": "DoneImporting",
            "type": "event"
        },
        {
            "anonymous": false,
            "inputs": [
                {
                    "indexed": true,
                    "name": "user",
                    "type": "address"
                },
                {
                    "indexed": true,
                    "name": "batchNo",
                    "type": "address"
                }
            ],
            "name": "DoneProcessing",
            "type": "event"
        },
        {
            "anonymous": false,
            "inputs": [
                {
                    "indexed": true,
                    "name": "previousOwner",
                    "type": "address"
                }
            ],
            "name": "OwnershipRenounced",
            "type": "event"
        },
        {
            "anonymous": false,
            "inputs": [
                {
                    "indexed": true,
                    "name": "previousOwner",
                    "type": "address"
                },
                {
                    "indexed": true,
                    "name": "newOwner",
                    "type": "address"
                }
            ],
            "name": "OwnershipTransferred",
            "type": "event"
        }
    ],
    "bytecode": "608060405234801561001057600080fd5b50604051602080613f30833981016040525160008054600160a060020a03338116600160a060020a03199283161790925560018054929093169116179055613ed38061005d6000396000f3006080604052600436106100cc5763ffffffff60e060020a60003504166302e716ca81146100d157806306ecd6d41461024857806347290118146103c95780634b205122146104b75780634d6b5e0014610624578063715018a6146106ba5780637f89e94b146106d157806381f960c21461083657806389d42c2e146109195780638da5cb5b14610a48578063b6959d7314610a5d578063ca5322e514610c3d578063ebca7e1c14610c5e578063f2997d7614610d41578063f2fde38b14610f2e578063febd049214610f4f575b600080fd5b3480156100dd57600080fd5b50604080516020600460443581810135601f8101849004840285018401909552848452610234948235600160a060020a031694602480359536959460649492019190819084018382808284375050604080516020601f89358b018035918201839004830284018301909452808352979a99988101979196509182019450925082915084018382808284375050604080516020601f89358b018035918201839004830284018301909452808352979a99988101979196509182019450925082915084018382808284375050604080516020601f89358b018035918201839004830284018301909452808352979a99988101979196509182019450925082915084018382808284375050604080516020601f89358b018035918201839004830284018301909452808352979a99988101979196509182019450925082915084018382808284375094975050933594506111959350505050565b604080519115158252519081900360200190f35b34801561025457600080fd5b50610269600160a060020a036004351661180f565b6040518088815260200180602001806020018060200187815260200186815260200185815260200184810384528a818151815260200191508051906020019080838360005b838110156102c65781810151838201526020016102ae565b50505050905090810190601f1680156102f35780820380516001836020036101000a031916815260200191505b5084810383528951815289516020918201918b019080838360005b8381101561032657818101518382015260200161030e565b50505050905090810190601f1680156103535780820380516001836020036101000a031916815260200191505b5084810382528851815288516020918201918a019080838360005b8381101561038657818101518382015260200161036e565b50505050905090810190601f1680156103b35780820380516001836020036101000a031916815260200191505b509a505050505050505050505060405180910390f35b3480156103d557600080fd5b50604080516020600460443581810135601f8101849004840285018401909552848452610234948235600160a060020a031694602480359536959460649492019190819084018382808284375050604080516020601f89358b018035918201839004830284018301909452808352979a99988101979196509182019450925082915084018382808284375050604080516020601f89358b018035918201839004830284018301909452808352979a9998810197919650918201945092508291508401838280828437509497505084359550505060209092013591506119d59050565b3480156104c357600080fd5b506040805160206004803580820135601f810184900484028501840190955284845261060894369492936024939284019190819084018382808284375050604080516020601f89358b018035918201839004830284018301909452808352979a99988101979196509182019450925082915084018382808284375050604080516020601f89358b018035918201839004830284018301909452808352979a99988101979196509182019450925082915084018382808284375050604080516020601f89358b018035918201839004830284018301909452808352979a99988101979196509182019450925082915084018382808284375050604080516020601f89358b018035918201839004830284018301909452808352979a999881019791965091820194509250829150840183828082843750949750611f889650505050505050565b60408051600160a060020a039092168252519081900360200190f35b34801561063057600080fd5b50610645600160a060020a0360043516612275565b6040805160208082528351818301528351919283929083019185019080838360005b8381101561067f578181015183820152602001610667565b50505050905090810190601f1680156106ac5780820380516001836020036101000a031916815260200191505b509250505060405180910390f35b3480156106c657600080fd5b506106cf612357565b005b3480156106dd57600080fd5b506106f2600160a060020a03600435166123c7565b60405180806020018060200180602001848103845287818151815260200191508051906020019080838360005b8381101561073757818101518382015260200161071f565b50505050905090810190601f1680156107645780820380516001836020036101000a031916815260200191505b50848103835286518152865160209182019188019080838360005b8381101561079757818101518382015260200161077f565b50505050905090810190601f1680156107c45780820380516001836020036101000a031916815260200191505b50848103825285518152855160209182019187019080838360005b838110156107f75781810151838201526020016107df565b50505050905090810190601f1680156108245780820380516001836020036101000a031916815260200191505b50965050505050505060405180910390f35b34801561084257600080fd5b5060408051602060046024803582810135601f8101859004850286018501909652858552610234958335600160a060020a031695369560449491939091019190819084018382808284375050604080516020601f89358b018035918201839004830284018301909452808352979a99988101979196509182019450925082915084018382808284375050604080516020601f89358b018035918201839004830284018301909452808352979a99988101979196509182019450925082915084018382808284375094975061255a9650505050505050565b34801561092557600080fd5b50604080516020600460443581810135601f8101849004840285018401909552848452610234948235600160a060020a031694602480359536959460649492019190819084018382808284375050604080516020601f818a01358b0180359182018390048302840183018552818452989b8a359b909a90999401975091955091820193509150819084018382808284375050604080516020601f818a01358b0180359182018390048302840183018552818452989b8a359b909a90999401975091955091820193509150819084018382808284375050604080516020601f89358b018035918201839004830284018301909452808352979a999881019791965091820194509250829150840183828082843750949750612af09650505050505050565b348015610a5457600080fd5b5061060861310b565b348015610a6957600080fd5b50610a7e600160a060020a036004351661311a565b604051808881526020018060200187815260200180602001868152602001806020018060200185810385528b818151815260200191508051906020019080838360005b83811015610ad9578181015183820152602001610ac1565b50505050905090810190601f168015610b065780820380516001836020036101000a031916815260200191505b5085810384528951815289516020918201918b019080838360005b83811015610b39578181015183820152602001610b21565b50505050905090810190601f168015610b665780820380516001836020036101000a031916815260200191505b50858103835287518152875160209182019189019080838360005b83811015610b99578181015183820152602001610b81565b50505050905090810190601f168015610bc65780820380516001836020036101000a031916815260200191505b50858103825286518152865160209182019188019080838360005b83811015610bf9578181015183820152602001610be1565b50505050905090810190601f168015610c265780820380516001836020036101000a031916815260200191505b509b50505050505050505050505060405180910390f35b348015610c4957600080fd5b506106f2600160a060020a036004351661334b565b348015610c6a57600080fd5b5060408051602060046024803582810135601f8101859004850286018501909652858552610234958335600160a060020a031695369560449491939091019190819084018382808284375050604080516020601f89358b018035918201839004830284018301909452808352979a99988101979196509182019450925082915084018382808284375050604080516020601f89358b018035918201839004830284018301909452808352979a9998810197919650918201945092508291508401838280828437509497506133b89650505050505050565b348015610d4d57600080fd5b50610d62600160a060020a036004351661394e565b60405180806020018060200180602001806020018060200186810386528b818151815260200191508051906020019080838360005b83811015610daf578181015183820152602001610d97565b50505050905090810190601f168015610ddc5780820380516001836020036101000a031916815260200191505b5086810385528a5181528a516020918201918c019080838360005b83811015610e0f578181015183820152602001610df7565b50505050905090810190601f168015610e3c5780820380516001836020036101000a031916815260200191505b5086810384528951815289516020918201918b019080838360005b83811015610e6f578181015183820152602001610e57565b50505050905090810190601f168015610e9c5780820380516001836020036101000a031916815260200191505b5086810383528851815288516020918201918a019080838360005b83811015610ecf578181015183820152602001610eb7565b50505050905090810190601f168015610efc5780820380516001836020036101000a031916815260200191505b50868103825287518152875160209182019189019080838360008381101561038657818101518382015260200161036e565b348015610f3a57600080fd5b506106cf600160a060020a0360043516613b80565b348015610f5b57600080fd5b50610f70600160a060020a0360043516613c18565b60405180898152602001806020018060200188815260200180602001806020018060200187815260200186810386528d818151815260200191508051906020019080838360005b83811015610fcf578181015183820152602001610fb7565b50505050905090810190601f168015610ffc5780820380516001836020036101000a031916815260200191505b5086810385528c5181528c516020918201918e019080838360005b8381101561102f578181015183820152602001611017565b50505050905090810190601f16801561105c5780820380516001836020036101000a031916815260200191505b5086810384528a5181528a516020918201918c019080838360005b8381101561108f578181015183820152602001611077565b50505050905090810190601f1680156110bc5780820380516001836020036101000a031916815260200191505b5086810383528951815289516020918201918b019080838360005b838110156110ef5781810151838201526020016110d7565b50505050905090810190601f16801561111c5780820380516001836020036101000a031916815260200191505b5086810382528851815288516020918201918a019080838360005b8381101561114f578181015183820152602001611137565b50505050905090810190601f16801561117c5780820380516001836020036101000a031916815260200191505b509d505050505050505050505050505060405180910390f35b600080896040805190810160405280600881526020017f494d504f52544552000000000000000000000000000000000000000000000000815250806040518082805190602001908083835b602083106111ff5780518252601f1990920191602091820191016111e0565b5181516020939093036101000a60001901801990911692169190911790526040805191909301819003812060015460e060020a6327820851028352600160a060020a03338116600485015294519196509390931693506327820851926024808301935060009282900301818387803b15801561127a57600080fd5b505af115801561128e573d6000803e3d6000fd5b505050506040513d6000823e601f3d908101601f1916820160405260208110156112b757600080fd5b8101908080516401000000008111156112cf57600080fd5b820160208101848111156112e257600080fd5b81516401000000008111828201871017156112fc57600080fd5b50509291905050506040518082805190602001908083835b602083106113335780518252601f199092019160209182019101611314565b6001836020036101000a03801982511681845116808217855250505050505090500191505060405180910390206000191614151561137057600080fd5b806040518082805190602001908083835b602083106113a05780518252601f199092019160209182019101611381565b5181516020939093036101000a60001901801990911692169190911790526040805191909301819003812060015460e960020a6226b5af028352600160a060020a0389811660048501529451919650939093169350634d6b5e00926024808301935060009282900301818387803b15801561141a57600080fd5b505af115801561142e573d6000803e3d6000fd5b505050506040513d6000823e601f3d908101601f19168201604052602081101561145757600080fd5b81019080805164010000000081111561146f57600080fd5b8201602081018481111561148257600080fd5b815164010000000081118282018710171561149c57600080fd5b50509291905050506040518082805190602001908083835b602083106114d35780518252601f1990920191602091820191016114b4565b6001836020036101000a03801982511681845116808217855250505050505090500191505060405180910390206000191614151561151057600080fd5b600160009054906101000a9004600160a060020a0316600160a060020a0316636115eec28d8d8d8d8d8d8d8d6040518963ffffffff1660e060020a0281526004018089600160a060020a0316600160a060020a03168152602001888152602001806020018060200180602001806020018060200187815260200186810386528c818151815260200191508051906020019080838360005b838110156115bf5781810151838201526020016115a7565b50505050905090810190601f1680156115ec5780820380516001836020036101000a031916815260200191505b5086810385528b5181528b516020918201918d019080838360005b8381101561161f578181015183820152602001611607565b50505050905090810190601f16801561164c5780820380516001836020036101000a031916815260200191505b5086810384528a5181528a516020918201918c019080838360005b8381101561167f578181015183820152602001611667565b50505050905090810190601f1680156116ac5780820380516001836020036101000a031916815260200191505b5086810383528951815289516020918201918b019080838360005b838110156116df5781810151838201526020016116c7565b50505050905090810190601f16801561170c5780820380516001836020036101000a031916815260200191505b5086810382528851815288516020918201918a019080838360005b8381101561173f578181015183820152602001611727565b50505050905090810190601f16801561176c5780820380516001836020036101000a031916815260200191505b509d5050505050505050505050505050602060405180830381600087803b15801561179657600080fd5b505af11580156117aa573d6000803e3d6000fd5b505050506040513d60208110156117c057600080fd5b5051604051909350600160a060020a03808e169133909116907fd42f803be1969ed3d7fe76e90571304a3e70f2f32b20773cbc303eff548cb05f90600090a350909a9950505050505050505050565b600154604080517f06ecd6d4000000000000000000000000000000000000000000000000000000008152600160a060020a0384811660048301529151600093606093849384938793849384939116916306ecd6d491602480820192869290919082900301818387803b15801561188457600080fd5b505af1158015611898573d6000803e3d6000fd5b505050506040513d6000823e601f3d908101601f1916820160405260e08110156118c157600080fd5b8151602083018051919392830192916401000000008111156118e257600080fd5b820160208101848111156118f557600080fd5b815164010000000081118282018710171561190f57600080fd5b5050929190602001805164010000000081111561192b57600080fd5b8201602081018481111561193e57600080fd5b815164010000000081118282018710171561195857600080fd5b5050929190602001805164010000000081111561197457600080fd5b8201602081018481111561198757600080fd5b81516401000000008111828201871017156119a157600080fd5b505060208201516040830151606090930151979e50959c50939a509298509296509094509192505050919395979092949650565b600080886040805190810160405280600881526020017f4558504f52544552000000000000000000000000000000000000000000000000815250806040518082805190602001908083835b60208310611a3f5780518252601f199092019160209182019101611a20565b5181516020939093036101000a60001901801990911692169190911790526040805191909301819003812060015460e060020a6327820851028352600160a060020a03338116600485015294519196509390931693506327820851926024808301935060009282900301818387803b158015611aba57600080fd5b505af1158015611ace573d6000803e3d6000fd5b505050506040513d6000823e601f3d908101601f191682016040526020811015611af757600080fd5b810190808051640100000000811115611b0f57600080fd5b82016020810184811115611b2257600080fd5b8151640100000000811182820187101715611b3c57600080fd5b50509291905050506040518082805190602001908083835b60208310611b735780518252601f199092019160209182019101611b54565b6001836020036101000a038019825116818451168082178552505050505050905001915050604051809103902060001916141515611bb057600080fd5b806040518082805190602001908083835b60208310611be05780518252601f199092019160209182019101611bc1565b5181516020939093036101000a60001901801990911692169190911790526040805191909301819003812060015460e960020a6226b5af028352600160a060020a0389811660048501529451919650939093169350634d6b5e00926024808301935060009282900301818387803b158015611c5a57600080fd5b505af1158015611c6e573d6000803e3d6000fd5b505050506040513d6000823e601f3d908101601f191682016040526020811015611c9757600080fd5b810190808051640100000000811115611caf57600080fd5b82016020810184811115611cc257600080fd5b8151640100000000811182820187101715611cdc57600080fd5b50509291905050506040518082805190602001908083835b60208310611d135780518252601f199092019160209182019101611cf4565b6001836020036101000a038019825116818451168082178552505050505050905001915050604051809103902060001916141515611d5057600080fd5b600160009054906101000a9004600160a060020a0316600160a060020a031663b51a32168c8c8c8c8c8c8c6040518863ffffffff1660e060020a0281526004018088600160a060020a0316600160a060020a03168152602001878152602001806020018060200180602001868152602001858152602001848103845289818151815260200191508051906020019080838360005b83811015611dfc578181015183820152602001611de4565b50505050905090810190601f168015611e295780820380516001836020036101000a031916815260200191505b5084810383528851815288516020918201918a019080838360005b83811015611e5c578181015183820152602001611e44565b50505050905090810190601f168015611e895780820380516001836020036101000a031916815260200191505b50848103825287518152875160209182019189019080838360005b83811015611ebc578181015183820152602001611ea4565b50505050905090810190601f168015611ee95780820380516001836020036101000a031916815260200191505b509a5050505050505050505050602060405180830381600087803b158015611f1057600080fd5b505af1158015611f24573d6000803e3d6000fd5b505050506040513d6020811015611f3a57600080fd5b5051604051909350600160a060020a03808d169133909116907feaba9e3c271bb82a9fd28bf677c9ee9b7a261f8ac7340051834c654f445e7db890600090a350909998505050505050505050565b60008054819033600160a060020a03908116911614611fa657600080fd5b600160009054906101000a9004600160a060020a0316600160a060020a031663cf37467488888888886040518663ffffffff1660e060020a02815260040180806020018060200180602001806020018060200186810386528b818151815260200191508051906020019080838360005b8381101561202e578181015183820152602001612016565b50505050905090810190601f16801561205b5780820380516001836020036101000a031916815260200191505b5086810385528a5181528a516020918201918c019080838360005b8381101561208e578181015183820152602001612076565b50505050905090810190601f1680156120bb5780820380516001836020036101000a031916815260200191505b5086810384528951815289516020918201918b019080838360005b838110156120ee5781810151838201526020016120d6565b50505050905090810190601f16801561211b5780820380516001836020036101000a031916815260200191505b5086810383528851815288516020918201918a019080838360005b8381101561214e578181015183820152602001612136565b50505050905090810190601f16801561217b5780820380516001836020036101000a031916815260200191505b50868103825287518152875160209182019189019080838360005b838110156121ae578181015183820152602001612196565b50505050905090810190601f1680156121db5780820380516001836020036101000a031916815260200191505b509a5050505050505050505050602060405180830381600087803b15801561220257600080fd5b505af1158015612216573d6000803e3d6000fd5b505050506040513d602081101561222c57600080fd5b5051604051909150600160a060020a038083169133909116907ffb0cd0976d848f2ad8c4a6963c1295c96186b2f3919c8204b4fcb350fc36a31f90600090a39695505050505050565b6001546040805160e960020a6226b5af028152600160a060020a03848116600483015291516060939290921691634d6b5e009160248082019260009290919082900301818387803b1580156122c957600080fd5b505af11580156122dd573d6000803e3d6000fd5b505050506040513d6000823e601f3d908101601f19168201604052602081101561230657600080fd5b81019080805164010000000081111561231e57600080fd5b8201602081018481111561233157600080fd5b815164010000000081118282018710171561234b57600080fd5b50909695505050505050565b60005433600160a060020a0390811691161461237257600080fd5b60008054604051600160a060020a03909116917ff8df31144d9c2f0f6b59d69b8b98abd5459d07f2742c4df920b25aae33c6482091a26000805473ffffffffffffffffffffffffffffffffffffffff19169055565b600154604080517f7f89e94b000000000000000000000000000000000000000000000000000000008152600160a060020a038481166004830152915160609384938493911691637f89e94b9160248082019260009290919082900301818387803b15801561243457600080fd5b505af1158015612448573d6000803e3d6000fd5b505050506040513d6000823e601f3d908101601f19168201604052606081101561247157600080fd5b81019080805164010000000081111561248957600080fd5b8201602081018481111561249c57600080fd5b81516401000000008111828201871017156124b657600080fd5b505092919060200180516401000000008111156124d257600080fd5b820160208101848111156124e557600080fd5b81516401000000008111828201871017156124ff57600080fd5b5050929190602001805164010000000081111561251b57600080fd5b8201602081018481111561252e57600080fd5b815164010000000081118282018710171561254857600080fd5b50959a94995097509295505050505050565b600080856040805190810160405280600f81526020017f4641524d5f494e5350454354494f4e0000000000000000000000000000000000815250806040518082805190602001908083835b602083106125c45780518252601f1990920191602091820191016125a5565b5181516020939093036101000a60001901801990911692169190911790526040805191909301819003812060015460e060020a6327820851028352600160a060020a03338116600485015294519196509390931693506327820851926024808301935060009282900301818387803b15801561263f57600080fd5b505af1158015612653573d6000803e3d6000fd5b505050506040513d6000823e601f3d908101601f19168201604052602081101561267c57600080fd5b81019080805164010000000081111561269457600080fd5b820160208101848111156126a757600080fd5b81516401000000008111828201871017156126c157600080fd5b50509291905050506040518082805190602001908083835b602083106126f85780518252601f1990920191602091820191016126d9565b6001836020036101000a03801982511681845116808217855250505050505090500191505060405180910390206000191614151561273557600080fd5b806040518082805190602001908083835b602083106127655780518252601f199092019160209182019101612746565b5181516020939093036101000a60001901801990911692169190911790526040805191909301819003812060015460e960020a6226b5af028352600160a060020a0389811660048501529451919650939093169350634d6b5e00926024808301935060009282900301818387803b1580156127df57600080fd5b505af11580156127f3573d6000803e3d6000fd5b505050506040513d6000823e601f3d908101601f19168201604052602081101561281c57600080fd5b81019080805164010000000081111561283457600080fd5b8201602081018481111561284757600080fd5b815164010000000081118282018710171561286157600080fd5b50509291905050506040518082805190602001908083835b602083106128985780518252601f199092019160209182019101612879565b6001836020036101000a0380198251168184511680821785525050505050509050019150506040518091039020600019161415156128d557600080fd5b6001546040517f1dbcddf4000000000000000000000000000000000000000000000000000000008152600160a060020a038a8116600483019081526080602484019081528b5160848501528b519290941693631dbcddf4938d938d938d938d93919290916044810191606482019160a40190602089019080838360005b8381101561296a578181015183820152602001612952565b50505050905090810190601f1680156129975780820380516001836020036101000a031916815260200191505b50848103835286518152865160209182019188019080838360005b838110156129ca5781810151838201526020016129b2565b50505050905090810190601f1680156129f75780820380516001836020036101000a031916815260200191505b50848103825285518152855160209182019187019080838360005b83811015612a2a578181015183820152602001612a12565b50505050905090810190601f168015612a575780820380516001836020036101000a031916815260200191505b50975050505050505050602060405180830381600087803b158015612a7b57600080fd5b505af1158015612a8f573d6000803e3d6000fd5b505050506040513d6020811015612aa557600080fd5b5051604051909350600160a060020a03808a169133909116907ff38048a8487a9352f87561aa442e92de7d09d55718b8bfc9b16720ea061c35c790600090a350909695505050505050565b600080896040805190810160405280600981526020017f50524f434553534f520000000000000000000000000000000000000000000000815250806040518082805190602001908083835b60208310612b5a5780518252601f199092019160209182019101612b3b565b5181516020939093036101000a60001901801990911692169190911790526040805191909301819003812060015460e060020a6327820851028352600160a060020a03338116600485015294519196509390931693506327820851926024808301935060009282900301818387803b158015612bd557600080fd5b505af1158015612be9573d6000803e3d6000fd5b505050506040513d6000823e601f3d908101601f191682016040526020811015612c1257600080fd5b810190808051640100000000811115612c2a57600080fd5b82016020810184811115612c3d57600080fd5b8151640100000000811182820187101715612c5757600080fd5b50509291905050506040518082805190602001908083835b60208310612c8e5780518252601f199092019160209182019101612c6f565b6001836020036101000a038019825116818451168082178552505050505050905001915050604051809103902060001916141515612ccb57600080fd5b806040518082805190602001908083835b60208310612cfb5780518252601f199092019160209182019101612cdc565b5181516020939093036101000a60001901801990911692169190911790526040805191909301819003812060015460e960020a6226b5af028352600160a060020a0389811660048501529451919650939093169350634d6b5e00926024808301935060009282900301818387803b158015612d7557600080fd5b505af1158015612d89573d6000803e3d6000fd5b505050506040513d6000823e601f3d908101601f191682016040526020811015612db257600080fd5b810190808051640100000000811115612dca57600080fd5b82016020810184811115612ddd57600080fd5b8151640100000000811182820187101715612df757600080fd5b50509291905050506040518082805190602001908083835b60208310612e2e5780518252601f199092019160209182019101612e0f565b6001836020036101000a038019825116818451168082178552505050505050905001915050604051809103902060001916141515612e6b57600080fd5b600160009054906101000a9004600160a060020a0316600160a060020a03166353a7571f8d8d8d8d8d8d8d8d6040518963ffffffff1660e060020a0281526004018089600160a060020a0316600160a060020a031681526020018881526020018060200187815260200180602001868152602001806020018060200185810385528b818151815260200191508051906020019080838360005b83811015612f1c578181015183820152602001612f04565b50505050905090810190601f168015612f495780820380516001836020036101000a031916815260200191505b5085810384528951815289516020918201918b019080838360005b83811015612f7c578181015183820152602001612f64565b50505050905090810190601f168015612fa95780820380516001836020036101000a031916815260200191505b50858103835287518152875160209182019189019080838360005b83811015612fdc578181015183820152602001612fc4565b50505050905090810190601f1680156130095780820380516001836020036101000a031916815260200191505b50858103825286518152865160209182019188019080838360005b8381101561303c578181015183820152602001613024565b50505050905090810190601f1680156130695780820380516001836020036101000a031916815260200191505b509c50505050505050505050505050602060405180830381600087803b15801561309257600080fd5b505af11580156130a6573d6000803e3d6000fd5b505050506040513d60208110156130bc57600080fd5b5051604051909350600160a060020a03808e169133909116907fe10398ac963823ae3dc8fc855773d4c9c3d53c5aca656e360a2a5c2ae659f26190600090a350909a9950505050505050505050565b600054600160a060020a031681565b600154604080517fb6959d73000000000000000000000000000000000000000000000000000000008152600160a060020a03848116600483015291516000936060938593859385938593849391169163b6959d7391602480820192889290919082900301818387803b15801561318f57600080fd5b505af11580156131a3573d6000803e3d6000fd5b505050506040513d6000823e601f3d908101601f1916820160405260e08110156131cc57600080fd5b8151602083018051919392830192916401000000008111156131ed57600080fd5b8201602081018481111561320057600080fd5b815164010000000081118282018710171561321a57600080fd5b5050602082015160409092018051919492939164010000000081111561323f57600080fd5b8201602081018481111561325257600080fd5b815164010000000081118282018710171561326c57600080fd5b5050602082015160409092018051919492939164010000000081111561329157600080fd5b820160208101848111156132a457600080fd5b81516401000000008111828201871017156132be57600080fd5b505092919060200180516401000000008111156132da57600080fd5b820160208101848111156132ed57600080fd5b815164010000000081118282018710171561330757600080fd5b5050929190505050809750819850829950839a50849b50859c50869d5050505050505050868686868686869650965096509650965096509650919395979092949650565b600154604080517fca5322e5000000000000000000000000000000000000000000000000000000008152600160a060020a03848116600483015291516060938493849391169163ca5322e59160248082019260009290919082900301818387803b15801561243457600080fd5b600080856040805190810160405280600981526020017f4841525645535445520000000000000000000000000000000000000000000000815250806040518082805190602001908083835b602083106134225780518252601f199092019160209182019101613403565b5181516020939093036101000a60001901801990911692169190911790526040805191909301819003812060015460e060020a6327820851028352600160a060020a03338116600485015294519196509390931693506327820851926024808301935060009282900301818387803b15801561349d57600080fd5b505af11580156134b1573d6000803e3d6000fd5b505050506040513d6000823e601f3d908101601f1916820160405260208110156134da57600080fd5b8101908080516401000000008111156134f257600080fd5b8201602081018481111561350557600080fd5b815164010000000081118282018710171561351f57600080fd5b50509291905050506040518082805190602001908083835b602083106135565780518252601f199092019160209182019101613537565b6001836020036101000a03801982511681845116808217855250505050505090500191505060405180910390206000191614151561359357600080fd5b806040518082805190602001908083835b602083106135c35780518252601f1990920191602091820191016135a4565b5181516020939093036101000a60001901801990911692169190911790526040805191909301819003812060015460e960020a6226b5af028352600160a060020a0389811660048501529451919650939093169350634d6b5e00926024808301935060009282900301818387803b15801561363d57600080fd5b505af1158015613651573d6000803e3d6000fd5b505050506040513d6000823e601f3d908101601f19168201604052602081101561367a57600080fd5b81019080805164010000000081111561369257600080fd5b820160208101848111156136a557600080fd5b81516401000000008111828201871017156136bf57600080fd5b50509291905050506040518082805190602001908083835b602083106136f65780518252601f1990920191602091820191016136d7565b6001836020036101000a03801982511681845116808217855250505050505090500191505060405180910390206000191614151561373357600080fd5b6001546040517f0ab36749000000000000000000000000000000000000000000000000000000008152600160a060020a038a8116600483019081526080602484019081528b5160848501528b519290941693630ab36749938d938d938d938d93919290916044810191606482019160a40190602089019080838360005b838110156137c85781810151838201526020016137b0565b50505050905090810190601f1680156137f55780820380516001836020036101000a031916815260200191505b50848103835286518152865160209182019188019080838360005b83811015613828578181015183820152602001613810565b50505050905090810190601f1680156138555780820380516001836020036101000a031916815260200191505b50848103825285518152855160209182019187019080838360005b83811015613888578181015183820152602001613870565b50505050905090810190601f1680156138b55780820380516001836020036101000a031916815260200191505b50975050505050505050602060405180830381600087803b1580156138d957600080fd5b505af11580156138ed573d6000803e3d6000fd5b505050506040513d602081101561390357600080fd5b5051604051909350600160a060020a03808a169133909116907fbb868668319b351e6f49e0d6ed1618eda15ffe73f6f6f371e419b8d3963a6be590600090a350909695505050505050565b600154604080517ff2997d76000000000000000000000000000000000000000000000000000000008152600160a060020a03848116600483015291516060938493849384938493929092169163f2997d769160248082019260009290919082900301818387803b1580156139c157600080fd5b505af11580156139d5573d6000803e3d6000fd5b505050506040513d6000823e601f3d908101601f1916820160405260a08110156139fe57600080fd5b810190808051640100000000811115613a1657600080fd5b82016020810184811115613a2957600080fd5b8151640100000000811182820187101715613a4357600080fd5b50509291906020018051640100000000811115613a5f57600080fd5b82016020810184811115613a7257600080fd5b8151640100000000811182820187101715613a8c57600080fd5b50509291906020018051640100000000811115613aa857600080fd5b82016020810184811115613abb57600080fd5b8151640100000000811182820187101715613ad557600080fd5b50509291906020018051640100000000811115613af157600080fd5b82016020810184811115613b0457600080fd5b8151640100000000811182820187101715613b1e57600080fd5b50509291906020018051640100000000811115613b3a57600080fd5b82016020810184811115613b4d57600080fd5b8151640100000000811182820187101715613b6757600080fd5b50979e969d50949b509299509297509295505050505050565b60005433600160a060020a03908116911614613b9b57600080fd5b600160a060020a0381161515613bb057600080fd5b60008054604051600160a060020a03808516939216917f8be0079c531659141344cd1fd0a4f28419497f9722a3daafe3b4186f6b6457e091a36000805473ffffffffffffffffffffffffffffffffffffffff1916600160a060020a0392909216919091179055565b6000606080600060608060606000600160009054906101000a9004600160a060020a0316600160a060020a031663febd04928a6040518263ffffffff1660e060020a0281526004018082600160a060020a0316600160a060020a03168152602001915050600060405180830381600087803b158015613c9657600080fd5b505af1158015613caa573d6000803e3d6000fd5b505050506040513d6000823e601f3d908101601f19168201604052610100811015613cd457600080fd5b815160208301805191939283019291640100000000811115613cf557600080fd5b82016020810184811115613d0857600080fd5b8151640100000000811182820187101715613d2257600080fd5b50509291906020018051640100000000811115613d3e57600080fd5b82016020810184811115613d5157600080fd5b8151640100000000811182820187101715613d6b57600080fd5b50506020820151604090920180519194929391640100000000811115613d9057600080fd5b82016020810184811115613da357600080fd5b8151640100000000811182820187101715613dbd57600080fd5b50509291906020018051640100000000811115613dd957600080fd5b82016020810184811115613dec57600080fd5b8151640100000000811182820187101715613e0657600080fd5b50509291906020018051640100000000811115613e2257600080fd5b82016020810184811115613e3557600080fd5b8151640100000000811182820187101715613e4f57600080fd5b505092919060200180519060200190929190505050809850819950829a50839b50849c50859d50869e50879f5050505050505050508787878787878787975097509750975097509750975097509193959750919395975600a165627a7a7230582016d3b8f9a60cf6786cd95f38e22ddf1ad61fa033847480faead110cfede6cdbf0029",
    "sourcePath": "m:/greechain/ethereum/contracts/CoffeeSupplyChain.sol",
    "compiler": {
        "name": "solc",
        "version": "0.4.23+commit.124ca40d"
    },
    "functionHashes": {
        "addBasicDetails(string,string,string,string,string)": "4b205122",
        "getBasicDetails(address)": "f2997d76",
        "getExporterData(address)": "06ecd6d4",
        "getFarmInspectorData(address)": "7f89e94b",
        "getHarvesterData(address)": "ca5322e5",
        "getImporterData(address)": "febd0492",
        "getNextAction(address)": "4d6b5e00",
        "getProcessorData(address)": "b6959d73",
        "owner()": "8da5cb5b",
        "renounceOwnership()": "715018a6",
        "transferOwnership(address)": "f2fde38b",
        "updateExporterData(address,uint256,string,string,string,uint256,uint256)": "47290118",
        "updateFarmInspectorData(address,string,string,string)": "81f960c2",
        "updateHarvesterData(address,string,string,string)": "ebca7e1c",
        "updateImporterData(address,uint256,string,string,string,string,string,uint256)": "02e716ca",
        "updateProcessorData(address,uint256,string,uint256,string,uint256,string,string)": "89d42c2e"
    },
    "gasEstimates": {
        "creation": {
            "codeDepositCost": "3216600",
            "executionCost": "44211",
            "totalCost": "3260811"
        },
        "external": {
            "addBasicDetails(string,string,string,string,string)": "infinite",
            "getBasicDetails(address)": "infinite",
            "getExporterData(address)": "infinite",
            "getFarmInspectorData(address)": "infinite",
            "getHarvesterData(address)": "infinite",
            "getImporterData(address)": "infinite",
            "getNextAction(address)": "infinite",
            "getProcessorData(address)": "infinite",
            "owner()": "798",
            "renounceOwnership()": "22257",
            "transferOwnership(address)": "23114",
            "updateExporterData(address,uint256,string,string,string,uint256,uint256)": "infinite",
            "updateFarmInspectorData(address,string,string,string)": "infinite",
            "updateHarvesterData(address,string,string,string)": "infinite",
            "updateImporterData(address,uint256,string,string,string,string,string,uint256)": "infinite",
            "updateProcessorData(address,uint256,string,uint256,string,uint256,string,string)": "infinite"
        }
    }
}