{
    "contractName": "SupplyChainUser",
    "abi": [
        {
            "constant": false,
            "inputs": [
                {
                    "name": "_userAddress",
                    "type": "address"
                },
                {
                    "name": "_name",
                    "type": "string"
                },
                {
                    "name": "_contactNo",
                    "type": "string"
                },
                {
                    "name": "_role",
                    "type": "string"
                },
                {
                    "name": "_isActive",
                    "type": "bool"
                },
                {
                    "name": "_profileHash",
                    "type": "string"
                }
            ],
            "name": "updateUserForAdmin",
            "outputs": [
                {
                    "name": "",
                    "type": "bool"
                }
            ],
            "payable": false,
            "stateMutability": "nonpayable",
            "type": "function"
        },
        {
            "constant": true,
            "inputs": [
                {
                    "name": "_userAddress",
                    "type": "address"
                }
            ],
            "name": "getUser",
            "outputs": [
                {
                    "name": "name",
                    "type": "string"
                },
                {
                    "name": "contactNo",
                    "type": "string"
                },
                {
                    "name": "role",
                    "type": "string"
                },
                {
                    "name": "isActive",
                    "type": "bool"
                },
                {
                    "name": "profileHash",
                    "type": "string"
                }
            ],
            "payable": false,
            "stateMutability": "view",
            "type": "function"
        },
        {
            "constant": false,
            "inputs": [],
            "name": "renounceOwnership",
            "outputs": [],
            "payable": false,
            "stateMutability": "nonpayable",
            "type": "function"
        },
        {
            "constant": true,
            "inputs": [],
            "name": "owner",
            "outputs": [
                {
                    "name": "",
                    "type": "address"
                }
            ],
            "payable": false,
            "stateMutability": "view",
            "type": "function"
        },
        {
            "constant": false,
            "inputs": [
                {
                    "name": "newOwner",
                    "type": "address"
                }
            ],
            "name": "transferOwnership",
            "outputs": [],
            "payable": false,
            "stateMutability": "nonpayable",
            "type": "function"
        },
        {
            "constant": false,
            "inputs": [
                {
                    "name": "_name",
                    "type": "string"
                },
                {
                    "name": "_contactNo",
                    "type": "string"
                },
                {
                    "name": "_role",
                    "type": "string"
                },
                {
                    "name": "_isActive",
                    "type": "bool"
                },
                {
                    "name": "_profileHash",
                    "type": "string"
                }
            ],
            "name": "updateUser",
            "outputs": [
                {
                    "name": "",
                    "type": "bool"
                }
            ],
            "payable": false,
            "stateMutability": "nonpayable",
            "type": "function"
        },
        {
            "inputs": [
                {
                    "name": "_supplyChainAddress",
                    "type": "address"
                }
            ],
            "payable": false,
            "stateMutability": "nonpayable",
            "type": "constructor"
        },
        {
            "anonymous": false,
            "inputs": [
                {
                    "indexed": true,
                    "name": "user",
                    "type": "address"
                },
                {
                    "indexed": false,
                    "name": "name",
                    "type": "string"
                },
                {
                    "indexed": false,
                    "name": "contactNo",
                    "type": "string"
                },
                {
                    "indexed": false,
                    "name": "role",
                    "type": "string"
                },
                {
                    "indexed": false,
                    "name": "isActive",
                    "type": "bool"
                },
                {
                    "indexed": false,
                    "name": "profileHash",
                    "type": "string"
                }
            ],
            "name": "UserUpdate",
            "type": "event"
        },
        {
            "anonymous": false,
            "inputs": [
                {
                    "indexed": true,
                    "name": "user",
                    "type": "address"
                },
                {
                    "indexed": false,
                    "name": "role",
                    "type": "string"
                }
            ],
            "name": "UserRoleUpdate",
            "type": "event"
        },
        {
            "anonymous": false,
            "inputs": [
                {
                    "indexed": true,
                    "name": "previousOwner",
                    "type": "address"
                }
            ],
            "name": "OwnershipRenounced",
            "type": "event"
        },
        {
            "anonymous": false,
            "inputs": [
                {
                    "indexed": true,
                    "name": "previousOwner",
                    "type": "address"
                },
                {
                    "indexed": true,
                    "name": "newOwner",
                    "type": "address"
                }
            ],
            "name": "OwnershipTransferred",
            "type": "event"
        }
    ],
    "bytecode": "608060405234801561001057600080fd5b506040516020806112bc833981016040525160008054600160a060020a03338116600160a060020a0319928316179092556001805492909316911617905561125f8061005d6000396000f3006080604052600436106100775763ffffffff7c01000000000000000000000000000000000000000000000000000000006000350416631e7d76aa811461007c5780636f77926b146101b9578063715018a61461038f5780638da5cb5b146103a6578063f2fde38b146103d7578063f5c8dee9146103f8575b600080fd5b34801561008857600080fd5b5060408051602060046024803582810135601f81018590048502860185019096528585526101a5958335600160a060020a031695369560449491939091019190819084018382808284375050604080516020601f89358b018035918201839004830284018301909452808352979a99988101979196509182019450925082915084018382808284375050604080516020601f89358b018035918201839004830284018301909452808352979a99988101979196509182019450925082915084018382808284375050604080516020601f818a01358b0180359182018390048302840183018552818452989b8a3515159b909a9099940197509195509182019350915081908401838280828437509497506105139650505050505050565b604080519115158252519081900360200190f35b3480156101c557600080fd5b506101da600160a060020a0360043516610a27565b60405180806020018060200180602001861515151581526020018060200185810385528a818151815260200191508051906020019080838360005b8381101561022d578181015183820152602001610215565b50505050905090810190601f16801561025a5780820380516001836020036101000a031916815260200191505b5085810384528951815289516020918201918b019080838360005b8381101561028d578181015183820152602001610275565b50505050905090810190601f1680156102ba5780820380516001836020036101000a031916815260200191505b5085810383528851815288516020918201918a019080838360005b838110156102ed5781810151838201526020016102d5565b50505050905090810190601f16801561031a5780820380516001836020036101000a031916815260200191505b50858103825286518152865160209182019188019080838360005b8381101561034d578181015183820152602001610335565b50505050905090810190601f16801561037a5780820380516001836020036101000a031916815260200191505b50995050505050505050505060405180910390f35b34801561039b57600080fd5b506103a4610c29565b005b3480156103b257600080fd5b506103bb610c99565b60408051600160a060020a039092168252519081900360200190f35b3480156103e357600080fd5b506103a4600160a060020a0360043516610ca8565b34801561040457600080fd5b506040805160206004803580820135601f81018490048402850184019095528484526101a594369492936024939284019190819084018382808284375050604080516020601f89358b018035918201839004830284018301909452808352979a99988101979196509182019450925082915084018382808284375050604080516020601f89358b018035918201839004830284018301909452808352979a99988101979196509182019450925082915084018382808284375050604080516020601f818a01358b0180359182018390048302840183018552818452989b8a3515159b909a909994019750919550918201935091508190840183828082843750949750610d409650505050505050565b60008054819033600160a060020a0390811691161461053157600080fd5b600160a060020a038816151561054657600080fd5b6001546040517ffb7a20af000000000000000000000000000000000000000000000000000000008152600160a060020a038a811660048301908152871515608484015260c0602484019081528b5160c48501528b51929094169363fb7a20af938d938d938d938d938d938d9392916044810191606482019160a481019160e49091019060208c019080838360005b838110156105ec5781810151838201526020016105d4565b50505050905090810190601f1680156106195780820380516001836020036101000a031916815260200191505b5085810384528951815289516020918201918b019080838360005b8381101561064c578181015183820152602001610634565b50505050905090810190601f1680156106795780820380516001836020036101000a031916815260200191505b5085810383528851815288516020918201918a019080838360005b838110156106ac578181015183820152602001610694565b50505050905090810190601f1680156106d95780820380516001836020036101000a031916815260200191505b50858103825286518152865160209182019188019080838360005b8381101561070c5781810151838201526020016106f4565b50505050905090810190601f1680156107395780820380516001836020036101000a031916815260200191505b509a5050505050505050505050602060405180830381600087803b15801561076057600080fd5b505af1158015610774573d6000803e3d6000fd5b505050506040513d602081101561078a57600080fd5b505160408051861515606082015260a08082528a51908201528951929350600160a060020a038b16927f913673700610456ef7bb668e20badb980d1e4df0ba5bfbdbb6e7bfb0ddbcc6c9928b928b928b928b928b9290918291602083810192840191608085019160c0860191908c019080838360005b83811015610818578181015183820152602001610800565b50505050905090810190601f1680156108455780820380516001836020036101000a031916815260200191505b5085810384528951815289516020918201918b019080838360005b83811015610878578181015183820152602001610860565b50505050905090810190601f1680156108a55780820380516001836020036101000a031916815260200191505b5085810383528851815288516020918201918a019080838360005b838110156108d85781810151838201526020016108c0565b50505050905090810190601f1680156109055780820380516001836020036101000a031916815260200191505b50858103825286518152865160209182019188019080838360005b83811015610938578181015183820152602001610920565b50505050905090810190601f1680156109655780820380516001836020036101000a031916815260200191505b50995050505050505050505060405180910390a287600160a060020a03167f3b419384c2ac88d62e2daac72f8c6e6398c474d91c63e814a307e3641762c8de866040518080602001828103825283818151815260200191508051906020019080838360005b838110156109e25781810151838201526020016109ca565b50505050905090810190601f168015610a0f5780820380516001836020036101000a031916815260200191505b509250505060405180910390a2979650505050505050565b60608080600081600160a060020a0386161515610a4357600080fd5b600154604080517f6f77926b000000000000000000000000000000000000000000000000000000008152600160a060020a03898116600483015291519190921691636f77926b91602480830192600092919082900301818387803b158015610aaa57600080fd5b505af1158015610abe573d6000803e3d6000fd5b505050506040513d6000823e601f3d908101601f1916820160405260a0811015610ae757600080fd5b810190808051640100000000811115610aff57600080fd5b82016020810184811115610b1257600080fd5b8151640100000000811182820187101715610b2c57600080fd5b50509291906020018051640100000000811115610b4857600080fd5b82016020810184811115610b5b57600080fd5b8151640100000000811182820187101715610b7557600080fd5b50509291906020018051640100000000811115610b9157600080fd5b82016020810184811115610ba457600080fd5b8151640100000000811182820187101715610bbe57600080fd5b50506020820151604090920180519194929391640100000000811115610be357600080fd5b82016020810184811115610bf657600080fd5b8151640100000000811182820187101715610c1057600080fd5b50979e969d50949b509299509297509295505050505050565b60005433600160a060020a03908116911614610c4457600080fd5b60008054604051600160a060020a03909116917ff8df31144d9c2f0f6b59d69b8b98abd5459d07f2742c4df920b25aae33c6482091a26000805473ffffffffffffffffffffffffffffffffffffffff19169055565b600054600160a060020a031681565b60005433600160a060020a03908116911614610cc357600080fd5b600160a060020a0381161515610cd857600080fd5b60008054604051600160a060020a03808516939216917f8be0079c531659141344cd1fd0a4f28419497f9722a3daafe3b4186f6b6457e091a36000805473ffffffffffffffffffffffffffffffffffffffff1916600160a060020a0392909216919091179055565b60008033600160a060020a03161515610d5857600080fd5b6001546040517ffb7a20af00000000000000000000000000000000000000000000000000000000815233600160a060020a0381811660048401908152881515608485015260c0602485019081528c5160c48601528c51929095169463fb7a20af948d938d938d938d938d936044820191606481019160a482019160e4019060208c019080838360005b83811015610df9578181015183820152602001610de1565b50505050905090810190601f168015610e265780820380516001836020036101000a031916815260200191505b5085810384528951815289516020918201918b019080838360005b83811015610e59578181015183820152602001610e41565b50505050905090810190601f168015610e865780820380516001836020036101000a031916815260200191505b5085810383528851815288516020918201918a019080838360005b83811015610eb9578181015183820152602001610ea1565b50505050905090810190601f168015610ee65780820380516001836020036101000a031916815260200191505b50858103825286518152865160209182019188019080838360005b83811015610f19578181015183820152602001610f01565b50505050905090810190601f168015610f465780820380516001836020036101000a031916815260200191505b509a5050505050505050505050602060405180830381600087803b158015610f6d57600080fd5b505af1158015610f81573d6000803e3d6000fd5b505050506040513d6020811015610f9757600080fd5b505160408051861515606082015260a08082528a51908201528951929350600160a060020a033316927f913673700610456ef7bb668e20badb980d1e4df0ba5bfbdbb6e7bfb0ddbcc6c9928b928b928b928b928b9290918291602083810192840191608085019160c0860191908c019080838360005b8381101561102557818101518382015260200161100d565b50505050905090810190601f1680156110525780820380516001836020036101000a031916815260200191505b5085810384528951815289516020918201918b019080838360005b8381101561108557818101518382015260200161106d565b50505050905090810190601f1680156110b25780820380516001836020036101000a031916815260200191505b5085810383528851815288516020918201918a019080838360005b838110156110e55781810151838201526020016110cd565b50505050905090810190601f1680156111125780820380516001836020036101000a031916815260200191505b50858103825286518152865160209182019188019080838360005b8381101561114557818101518382015260200161112d565b50505050905090810190601f1680156111725780820380516001836020036101000a031916815260200191505b50995050505050505050505060405180910390a233600160a060020a03167f3b419384c2ac88d62e2daac72f8c6e6398c474d91c63e814a307e3641762c8de866040518080602001828103825283818151815260200191508051906020019080838360005b838110156111ef5781810151838201526020016111d7565b50505050905090810190601f16801561121c5780820380516001836020036101000a031916815260200191505b509250505060405180910390a296955050505050505600a165627a7a72305820a123cafd2db26dc863288899d5de90a9380b3136b719e0d6a8b7b88f71c7d1320029",
    "sourcePath": "m:/greechain/ethereum/contracts/SupplyChainUser.sol",
    "compiler": {
        "name": "solc",
        "version": "0.4.23+commit.124ca40d"
    },
    "functionHashes": {
        "getUser(address)": "6f77926b",
        "owner()": "8da5cb5b",
        "renounceOwnership()": "715018a6",
        "transferOwnership(address)": "f2fde38b",
        "updateUser(string,string,string,bool,string)": "f5c8dee9",
        "updateUserForAdmin(address,string,string,string,bool,string)": "1e7d76aa"
    },
    "gasEstimates": {
        "creation": {
            "codeDepositCost": "940600",
            "executionCost": "41623",
            "totalCost": "982223"
        },
        "external": {
            "getUser(address)": "infinite",
            "owner()": "603",
            "renounceOwnership()": "22128",
            "transferOwnership(address)": "22831",
            "updateUser(string,string,string,bool,string)": "infinite",
            "updateUserForAdmin(address,string,string,string,bool,string)": "infinite"
        }
    }
}