{
    "contractName": "SupplyChainStorage",
    "abi": [
        {
            "constant": true,
            "inputs": [
                {
                    "name": "batchNo",
                    "type": "address"
                }
            ],
            "name": "getExporterData",
            "outputs": [
                {
                    "name": "quantity",
                    "type": "uint256"
                },
                {
                    "name": "destinationAddress",
                    "type": "string"
                },
                {
                    "name": "shipName",
                    "type": "string"
                },
                {
                    "name": "shipNo",
                    "type": "string"
                },
                {
                    "name": "departureDateTime",
                    "type": "uint256"
                },
                {
                    "name": "estimateDateTime",
                    "type": "uint256"
                },
                {
                    "name": "exporterId",
                    "type": "uint256"
                }
            ],
            "payable": false,
            "stateMutability": "view",
            "type": "function"
        },
        {
            "constant": false,
            "inputs": [
                {
                    "name": "batchNo",
                    "type": "address"
                },
                {
                    "name": "_cropVariety",
                    "type": "string"
                },
                {
                    "name": "_temperatureUsed",
                    "type": "string"
                },
                {
                    "name": "_humidity",
                    "type": "string"
                }
            ],
            "name": "setHarvesterData",
            "outputs": [
                {
                    "name": "",
                    "type": "bool"
                }
            ],
            "payable": false,
            "stateMutability": "nonpayable",
            "type": "function"
        },
        {
            "constant": false,
            "inputs": [
                {
                    "name": "_caller",
                    "type": "address"
                }
            ],
            "name": "deAuthorizeCaller",
            "outputs": [
                {
                    "name": "",
                    "type": "bool"
                }
            ],
            "payable": false,
            "stateMutability": "nonpayable",
            "type": "function"
        },
        {
            "constant": false,
            "inputs": [
                {
                    "name": "batchNo",
                    "type": "address"
                },
                {
                    "name": "_coffeeFamily",
                    "type": "string"
                },
                {
                    "name": "_typeOfSeed",
                    "type": "string"
                },
                {
                    "name": "_fertilizerUsed",
                    "type": "string"
                }
            ],
            "name": "setFarmInspectorData",
            "outputs": [
                {
                    "name": "",
                    "type": "bool"
                }
            ],
            "payable": false,
            "stateMutability": "nonpayable",
            "type": "function"
        },
        {
            "constant": true,
            "inputs": [
                {
                    "name": "_userAddress",
                    "type": "address"
                }
            ],
            "name": "getUserRole",
            "outputs": [
                {
                    "name": "",
                    "type": "string"
                }
            ],
            "payable": false,
            "stateMutability": "view",
            "type": "function"
        },
        {
            "constant": false,
            "inputs": [
                {
                    "name": "_caller",
                    "type": "address"
                }
            ],
            "name": "authorizeCaller",
            "outputs": [
                {
                    "name": "",
                    "type": "bool"
                }
            ],
            "payable": false,
            "stateMutability": "nonpayable",
            "type": "function"
        },
        {
            "constant": true,
            "inputs": [],
            "name": "lastAccess",
            "outputs": [
                {
                    "name": "",
                    "type": "address"
                }
            ],
            "payable": false,
            "stateMutability": "view",
            "type": "function"
        },
        {
            "constant": true,
            "inputs": [
                {
                    "name": "_batchNo",
                    "type": "address"
                }
            ],
            "name": "getNextAction",
            "outputs": [
                {
                    "name": "",
                    "type": "string"
                }
            ],
            "payable": false,
            "stateMutability": "view",
            "type": "function"
        },
        {
            "constant": false,
            "inputs": [
                {
                    "name": "batchNo",
                    "type": "address"
                },
                {
                    "name": "_quantity",
                    "type": "uint256"
                },
                {
                    "name": "_temperature",
                    "type": "string"
                },
                {
                    "name": "_rostingDuration",
                    "type": "uint256"
                },
                {
                    "name": "_internalBatchNo",
                    "type": "string"
                },
                {
                    "name": "_packageDateTime",
                    "type": "uint256"
                },
                {
                    "name": "_processorName",
                    "type": "string"
                },
                {
                    "name": "_processorAddress",
                    "type": "string"
                }
            ],
            "name": "setProcessorData",
            "outputs": [
                {
                    "name": "",
                    "type": "bool"
                }
            ],
            "payable": false,
            "stateMutability": "nonpayable",
            "type": "function"
        },
        {
            "constant": false,
            "inputs": [
                {
                    "name": "batchNo",
                    "type": "address"
                },
                {
                    "name": "_quantity",
                    "type": "uint256"
                },
                {
                    "name": "_shipName",
                    "type": "string"
                },
                {
                    "name": "_shipNo",
                    "type": "string"
                },
                {
                    "name": "_transportInfo",
                    "type": "string"
                },
                {
                    "name": "_warehouseName",
                    "type": "string"
                },
                {
                    "name": "_warehouseAddress",
                    "type": "string"
                },
                {
                    "name": "_importerId",
                    "type": "uint256"
                }
            ],
            "name": "setImporterData",
            "outputs": [
                {
                    "name": "",
                    "type": "bool"
                }
            ],
            "payable": false,
            "stateMutability": "nonpayable",
            "type": "function"
        },
        {
            "constant": true,
            "inputs": [
                {
                    "name": "_userAddress",
                    "type": "address"
                }
            ],
            "name": "getUser",
            "outputs": [
                {
                    "name": "name",
                    "type": "string"
                },
                {
                    "name": "contactNo",
                    "type": "string"
                },
                {
                    "name": "role",
                    "type": "string"
                },
                {
                    "name": "isActive",
                    "type": "bool"
                },
                {
                    "name": "profileHash",
                    "type": "string"
                }
            ],
            "payable": false,
            "stateMutability": "view",
            "type": "function"
        },
        {
            "constant": false,
            "inputs": [],
            "name": "renounceOwnership",
            "outputs": [],
            "payable": false,
            "stateMutability": "nonpayable",
            "type": "function"
        },
        {
            "constant": true,
            "inputs": [
                {
                    "name": "batchNo",
                    "type": "address"
                }
            ],
            "name": "getFarmInspectorData",
            "outputs": [
                {
                    "name": "coffeeFamily",
                    "type": "string"
                },
                {
                    "name": "typeOfSeed",
                    "type": "string"
                },
                {
                    "name": "fertilizerUsed",
                    "type": "string"
                }
            ],
            "payable": false,
            "stateMutability": "view",
            "type": "function"
        },
        {
            "constant": true,
            "inputs": [],
            "name": "owner",
            "outputs": [
                {
                    "name": "",
                    "type": "address"
                }
            ],
            "payable": false,
            "stateMutability": "view",
            "type": "function"
        },
        {
            "constant": false,
            "inputs": [
                {
                    "name": "batchNo",
                    "type": "address"
                },
                {
                    "name": "_quantity",
                    "type": "uint256"
                },
                {
                    "name": "_destinationAddress",
                    "type": "string"
                },
                {
                    "name": "_shipName",
                    "type": "string"
                },
                {
                    "name": "_shipNo",
                    "type": "string"
                },
                {
                    "name": "_estimateDateTime",
                    "type": "uint256"
                },
                {
                    "name": "_exporterId",
                    "type": "uint256"
                }
            ],
            "name": "setExporterData",
            "outputs": [
                {
                    "name": "",
                    "type": "bool"
                }
            ],
            "payable": false,
            "stateMutability": "nonpayable",
            "type": "function"
        },
        {
            "constant": true,
            "inputs": [
                {
                    "name": "batchNo",
                    "type": "address"
                }
            ],
            "name": "getProcessorData",
            "outputs": [
                {
                    "name": "quantity",
                    "type": "uint256"
                },
                {
                    "name": "temperature",
                    "type": "string"
                },
                {
                    "name": "rostingDuration",
                    "type": "uint256"
                },
                {
                    "name": "internalBatchNo",
                    "type": "string"
                },
                {
                    "name": "packageDateTime",
                    "type": "uint256"
                },
                {
                    "name": "processorName",
                    "type": "string"
                },
                {
                    "name": "processorAddress",
                    "type": "string"
                }
            ],
            "payable": false,
            "stateMutability": "view",
            "type": "function"
        },
        {
            "constant": true,
            "inputs": [
                {
                    "name": "batchNo",
                    "type": "address"
                }
            ],
            "name": "getHarvesterData",
            "outputs": [
                {
                    "name": "cropVariety",
                    "type": "string"
                },
                {
                    "name": "temperatureUsed",
                    "type": "string"
                },
                {
                    "name": "humidity",
                    "type": "string"
                }
            ],
            "payable": false,
            "stateMutability": "view",
            "type": "function"
        },
        {
            "constant": false,
            "inputs": [
                {
                    "name": "_registrationNo",
                    "type": "string"
                },
                {
                    "name": "_farmerName",
                    "type": "string"
                },
                {
                    "name": "_farmAddress",
                    "type": "string"
                },
                {
                    "name": "_exporterName",
                    "type": "string"
                },
                {
                    "name": "_importerName",
                    "type": "string"
                }
            ],
            "name": "setBasicDetails",
            "outputs": [
                {
                    "name": "",
                    "type": "address"
                }
            ],
            "payable": false,
            "stateMutability": "nonpayable",
            "type": "function"
        },
        {
            "constant": true,
            "inputs": [
                {
                    "name": "_batchNo",
                    "type": "address"
                }
            ],
            "name": "getBasicDetails",
            "outputs": [
                {
                    "name": "registrationNo",
                    "type": "string"
                },
                {
                    "name": "farmerName",
                    "type": "string"
                },
                {
                    "name": "farmAddress",
                    "type": "string"
                },
                {
                    "name": "exporterName",
                    "type": "string"
                },
                {
                    "name": "importerName",
                    "type": "string"
                }
            ],
            "payable": false,
            "stateMutability": "view",
            "type": "function"
        },
        {
            "constant": false,
            "inputs": [
                {
                    "name": "newOwner",
                    "type": "address"
                }
            ],
            "name": "transferOwnership",
            "outputs": [],
            "payable": false,
            "stateMutability": "nonpayable",
            "type": "function"
        },
        {
            "constant": false,
            "inputs": [
                {
                    "name": "_userAddress",
                    "type": "address"
                },
                {
                    "name": "_name",
                    "type": "string"
                },
                {
                    "name": "_contactNo",
                    "type": "string"
                },
                {
                    "name": "_role",
                    "type": "string"
                },
                {
                    "name": "_isActive",
                    "type": "bool"
                },
                {
                    "name": "_profileHash",
                    "type": "string"
                }
            ],
            "name": "setUser",
            "outputs": [
                {
                    "name": "",
                    "type": "bool"
                }
            ],
            "payable": false,
            "stateMutability": "nonpayable",
            "type": "function"
        },
        {
            "constant": true,
            "inputs": [
                {
                    "name": "batchNo",
                    "type": "address"
                }
            ],
            "name": "getImporterData",
            "outputs": [
                {
                    "name": "quantity",
                    "type": "uint256"
                },
                {
                    "name": "shipName",
                    "type": "string"
                },
                {
                    "name": "shipNo",
                    "type": "string"
                },
                {
                    "name": "arrivalDateTime",
                    "type": "uint256"
                },
                {
                    "name": "transportInfo",
                    "type": "string"
                },
                {
                    "name": "warehouseName",
                    "type": "string"
                },
                {
                    "name": "warehouseAddress",
                    "type": "string"
                },
                {
                    "name": "importerId",
                    "type": "uint256"
                }
            ],
            "payable": false,
            "stateMutability": "view",
            "type": "function"
        },
        {
            "inputs": [],
            "payable": false,
            "stateMutability": "nonpayable",
            "type": "constructor"
        },
        {
            "anonymous": false,
            "inputs": [
                {
                    "indexed": false,
                    "name": "caller",
                    "type": "address"
                }
            ],
            "name": "AuthorizedCaller",
            "type": "event"
        },
        {
            "anonymous": false,
            "inputs": [
                {
                    "indexed": false,
                    "name": "caller",
                    "type": "address"
                }
            ],
            "name": "DeAuthorizedCaller",
            "type": "event"
        },
        {
            "anonymous": false,
            "inputs": [
                {
                    "indexed": true,
                    "name": "previousOwner",
                    "type": "address"
                }
            ],
            "name": "OwnershipRenounced",
            "type": "event"
        },
        {
            "anonymous": false,
            "inputs": [
                {
                    "indexed": true,
                    "name": "previousOwner",
                    "type": "address"
                },
                {
                    "indexed": true,
                    "name": "newOwner",
                    "type": "address"
                }
            ],
            "name": "OwnershipTransferred",
            "type": "event"
        }
    ],
    "bytecode": "608060405234801561001057600080fd5b5060008054600160a060020a03191633600160a060020a0316908117825580825260046020908152604092839020805460ff19166001179055825191825291517f8afeca650897be3183b7c0d24eba96a1b990f75c4bd74a0cfb2c0a71aec48e61929181900390910190a1613a9b8061008a6000396000f3006080604052600436106101275763ffffffff7c010000000000000000000000000000000000000000000000000000000060003504166306ecd6d4811461012c5780630ab36749146102ad5780631bcd250a146103a45780631dbcddf4146103c557806327820851146104a85780632c388d5d1461053e5780633480898b1461055f5780634d6b5e001461059057806353a7571f146105b15780636115eec2146106e05780636f77926b14610843578063715018a614610a195780637f89e94b14610a305780638da5cb5b14610b95578063b51a321614610baa578063b6959d7314610c98578063ca5322e514610e78578063cf37467414610e99578063f2997d7614610fea578063f2fde38b146111d7578063fb7a20af146111f8578063febd049214611321575b600080fd5b34801561013857600080fd5b5061014d600160a060020a0360043516611567565b6040518088815260200180602001806020018060200187815260200186815260200185815260200184810384528a818151815260200191508051906020019080838360005b838110156101aa578181015183820152602001610192565b50505050905090810190601f1680156101d75780820380516001836020036101000a031916815260200191505b5084810383528951815289516020918201918b019080838360005b8381101561020a5781810151838201526020016101f2565b50505050905090810190601f1680156102375780820380516001836020036101000a031916815260200191505b5084810382528851815288516020918201918a019080838360005b8381101561026a578181015183820152602001610252565b50505050905090810190601f1680156102975780820380516001836020036101000a031916815260200191505b509a505050505050505050505060405180910390f35b3480156102b957600080fd5b5060408051602060046024803582810135601f8101859004850286018501909652858552610390958335600160a060020a031695369560449491939091019190819084018382808284375050604080516020601f89358b018035918201839004830284018301909452808352979a99988101979196509182019450925082915084018382808284375050604080516020601f89358b018035918201839004830284018301909452808352979a9998810197919650918201945092508291508401838280828437509497506118139650505050505050565b604080519115158252519081900360200190f35b3480156103b057600080fd5b50610390600160a060020a0360043516611983565b3480156103d157600080fd5b5060408051602060046024803582810135601f8101859004850286018501909652858552610390958335600160a060020a031695369560449491939091019190819084018382808284375050604080516020601f89358b018035918201839004830284018301909452808352979a99988101979196509182019450925082915084018382808284375050604080516020601f89358b018035918201839004830284018301909452808352979a9998810197919650918201945092508291508401838280828437509497506119fc9650505050505050565b3480156104b457600080fd5b506104c9600160a060020a0360043516611b60565b6040805160208082528351818301528351919283929083019185019080838360005b838110156105035781810151838201526020016104eb565b50505050905090810190601f1680156105305780820380516001836020036101000a031916815260200191505b509250505060405180910390f35b34801561054a57600080fd5b50610390600160a060020a0360043516611c47565b34801561056b57600080fd5b50610574611cc3565b60408051600160a060020a039092168252519081900360200190f35b34801561059c57600080fd5b506104c9600160a060020a0360043516611cd2565b3480156105bd57600080fd5b50604080516020600460443581810135601f8101849004840285018401909552848452610390948235600160a060020a031694602480359536959460649492019190819084018382808284375050604080516020601f818a01358b0180359182018390048302840183018552818452989b8a359b909a90999401975091955091820193509150819084018382808284375050604080516020601f818a01358b0180359182018390048302840183018552818452989b8a359b909a90999401975091955091820193509150819084018382808284375050604080516020601f89358b018035918201839004830284018301909452808352979a999881019791965091820194509250829150840183828082843750949750611d829650505050505050565b3480156106ec57600080fd5b50604080516020600460443581810135601f8101849004840285018401909552848452610390948235600160a060020a031694602480359536959460649492019190819084018382808284375050604080516020601f89358b018035918201839004830284018301909452808352979a99988101979196509182019450925082915084018382808284375050604080516020601f89358b018035918201839004830284018301909452808352979a99988101979196509182019450925082915084018382808284375050604080516020601f89358b018035918201839004830284018301909452808352979a99988101979196509182019450925082915084018382808284375050604080516020601f89358b018035918201839004830284018301909452808352979a9998810197919650918201945092508291508401838280828437509497505093359450611f609350505050565b34801561084f57600080fd5b50610864600160a060020a0360043516612165565b60405180806020018060200180602001861515151581526020018060200185810385528a818151815260200191508051906020019080838360005b838110156108b757818101518382015260200161089f565b50505050905090810190601f1680156108e45780820380516001836020036101000a031916815260200191505b5085810384528951815289516020918201918b019080838360005b838110156109175781810151838201526020016108ff565b50505050905090810190601f1680156109445780820380516001836020036101000a031916815260200191505b5085810383528851815288516020918201918a019080838360005b8381101561097757818101518382015260200161095f565b50505050905090810190601f1680156109a45780820380516001836020036101000a031916815260200191505b50858103825286518152865160209182019188019080838360005b838110156109d75781810151838201526020016109bf565b50505050905090810190601f168015610a045780820380516001836020036101000a031916815260200191505b50995050505050505050505060405180910390f35b348015610a2557600080fd5b50610a2e61247b565b005b348015610a3c57600080fd5b50610a51600160a060020a03600435166124de565b60405180806020018060200180602001848103845287818151815260200191508051906020019080838360005b83811015610a96578181015183820152602001610a7e565b50505050905090810190601f168015610ac35780820380516001836020036101000a031916815260200191505b50848103835286518152865160209182019188019080838360005b83811015610af6578181015183820152602001610ade565b50505050905090810190601f168015610b235780820380516001836020036101000a031916815260200191505b50848103825285518152855160209182019187019080838360005b83811015610b56578181015183820152602001610b3e565b50505050905090810190601f168015610b835780820380516001836020036101000a031916815260200191505b50965050505050505060405180910390f35b348015610ba157600080fd5b50610574612725565b348015610bb657600080fd5b50604080516020600460443581810135601f8101849004840285018401909552848452610390948235600160a060020a031694602480359536959460649492019190819084018382808284375050604080516020601f89358b018035918201839004830284018301909452808352979a99988101979196509182019450925082915084018382808284375050604080516020601f89358b018035918201839004830284018301909452808352979a9998810197919650918201945092508291508401838280828437509497505084359550505060209092013591506127349050565b348015610ca457600080fd5b50610cb9600160a060020a03600435166128e7565b604051808881526020018060200187815260200180602001868152602001806020018060200185810385528b818151815260200191508051906020019080838360005b83811015610d14578181015183820152602001610cfc565b50505050905090810190601f168015610d415780820380516001836020036101000a031916815260200191505b5085810384528951815289516020918201918b019080838360005b83811015610d74578181015183820152602001610d5c565b50505050905090810190601f168015610da15780820380516001836020036101000a031916815260200191505b50858103835287518152875160209182019189019080838360005b83811015610dd4578181015183820152602001610dbc565b50505050905090810190601f168015610e015780820380516001836020036101000a031916815260200191505b50858103825286518152865160209182019188019080838360005b83811015610e34578181015183820152602001610e1c565b50505050905090810190601f168015610e615780820380516001836020036101000a031916815260200191505b509b50505050505050505050505060405180910390f35b348015610e8457600080fd5b50610a51600160a060020a0360043516612c01565b348015610ea557600080fd5b506040805160206004803580820135601f810184900484028501840190955284845261057494369492936024939284019190819084018382808284375050604080516020601f89358b018035918201839004830284018301909452808352979a99988101979196509182019450925082915084018382808284375050604080516020601f89358b018035918201839004830284018301909452808352979a99988101979196509182019450925082915084018382808284375050604080516020601f89358b018035918201839004830284018301909452808352979a99988101979196509182019450925082915084018382808284375050604080516020601f89358b018035918201839004830284018301909452808352979a999881019791965091820194509250829150840183828082843750949750612cc49650505050505050565b348015610ff657600080fd5b5061100b600160a060020a0360043516612ee4565b60405180806020018060200180602001806020018060200186810386528b818151815260200191508051906020019080838360005b83811015611058578181015183820152602001611040565b50505050905090810190601f1680156110855780820380516001836020036101000a031916815260200191505b5086810385528a5181528a516020918201918c019080838360005b838110156110b85781810151838201526020016110a0565b50505050905090810190601f1680156110e55780820380516001836020036101000a031916815260200191505b5086810384528951815289516020918201918b019080838360005b83811015611118578181015183820152602001611100565b50505050905090810190601f1680156111455780820380516001836020036101000a031916815260200191505b5086810383528851815288516020918201918a019080838360005b83811015611178578181015183820152602001611160565b50505050905090810190601f1680156111a55780820380516001836020036101000a031916815260200191505b50868103825287518152875160209182019189019080838360008381101561026a578181015183820152602001610252565b3480156111e357600080fd5b50610a2e600160a060020a0360043516613265565b34801561120457600080fd5b5060408051602060046024803582810135601f8101859004850286018501909652858552610390958335600160a060020a031695369560449491939091019190819084018382808284375050604080516020601f89358b018035918201839004830284018301909452808352979a99988101979196509182019450925082915084018382808284375050604080516020601f89358b018035918201839004830284018301909452808352979a99988101979196509182019450925082915084018382808284375050604080516020601f818a01358b0180359182018390048302840183018552818452989b8a3515159b909a9099940197509195509182019350915081908401838280828437509497506132f09650505050505050565b34801561132d57600080fd5b50611342600160a060020a0360043516613458565b60405180898152602001806020018060200188815260200180602001806020018060200187815260200186810386528d818151815260200191508051906020019080838360005b838110156113a1578181015183820152602001611389565b50505050905090810190601f1680156113ce5780820380516001836020036101000a031916815260200191505b5086810385528c5181528c516020918201918e019080838360005b838110156114015781810151838201526020016113e9565b50505050905090810190601f16801561142e5780820380516001836020036101000a031916815260200191505b5086810384528a5181528a516020918201918c019080838360005b83811015611461578181015183820152602001611449565b50505050905090810190601f16801561148e5780820380516001836020036101000a031916815260200191505b5086810383528951815289516020918201918b019080838360005b838110156114c15781810151838201526020016114a9565b50505050905090810190601f1680156114ee5780820380516001836020036101000a031916815260200191505b5086810382528851815288516020918201918a019080838360005b83811015611521578181015183820152602001611509565b50505050905090810190601f16801561154e5780820380516001836020036101000a031916815260200191505b509d505050505050505050505050505060405180910390f35b60006060806060600080600061157b613818565b60018054600160a060020a03191633600160a060020a0316908117825560009081526004602052604090205460ff16146115b457600080fd5b600160a060020a038916600090815260086020908152604091829020825181546002610100600183161581026000190190921604601f81018590049094028201610120908101909552810183815290939192849284919084018282801561165c5780601f106116315761010080835404028352916020019161165c565b820191906000526020600020905b81548152906001019060200180831161163f57829003601f168201915b50505050508152602001600182018054600181600116156101000203166002900480601f0160208091040260200160405190810160405280929190818152602001828054600181600116156101000203166002900480156116fe5780601f106116d3576101008083540402835291602001916116fe565b820191906000526020600020905b8154815290600101906020018083116116e157829003601f168201915b5050509183525050600282810180546040805160206001841615610100026000190190931694909404601f810183900483028501830190915280845293810193908301828280156117905780601f1061176557610100808354040283529160200191611790565b820191906000526020600020905b81548152906001019060200180831161177357829003601f168201915b50505050508152602001600382015481526020016004820154815260200160058201548152602001600682015481526020016007820154815250509050806060015181600001518260200151836040015184608001518560a001518660e00151859550849450839350975097509750975097509750975050919395979092949650565b60018054600160a060020a03191633600160a060020a03169081178255600090815260046020526040812054909160ff9091161461185057600080fd5b835161186390601890602087019061385e565b50825161187790601990602086019061385e565b50815161188b90601a90602085019061385e565b50600160a060020a0385166000908152600760205260409020601880549091906118cb9082908490600260001961010060018416150201909116046138dc565b50600182018160010190805460018160011615610100020316600290046118f39291906138dc565b50600282810180546119189284810192916000196101006001831615020116046138dc565b5050604080518082018252600881527f4558504f525445520000000000000000000000000000000000000000000000006020808301918252600160a060020a038a166000908152600b909152929092209051611977935090919061385e565b50600195945050505050565b6000805433600160a060020a0390811691161461199f57600080fd5b600160a060020a038216600081815260046020908152604091829020805460ff19169055815192835290517f9e8ca6ff03906e81e8a6a03d4f96b7edb0b97f0ed9d07ef1b699fff6343854969281900390910190a1506001919050565b60018054600160a060020a03191633600160a060020a03169081178255600090815260046020526040812054909160ff90911614611a3957600080fd5b8351611a4c90601590602087019061385e565b508251611a6090601690602086019061385e565b508151611a7490601790602085019061385e565b50600160a060020a038516600090815260066020526040902060158054909190611ab49082908490600260001961010060018416150201909116046138dc565b5060018201816001019080546001816001161561010002031660029004611adc9291906138dc565b5060028281018054611b019284810192916000196101006001831615020116046138dc565b5050604080518082018252600981527f48415256455354455200000000000000000000000000000000000000000000006020808301918252600160a060020a038a166000908152600b909152929092209051611977935090919061385e565b60018054600160a060020a03191633600160a060020a0316908117825560009081526004602052604090205460609160ff90911614611b9e57600080fd5b600160a060020a03821660009081526003602090815260409182902080548351601f600260001961010060018616150201909316929092049182018490048402810184019094528084529091830182828015611c3b5780601f10611c1057610100808354040283529160200191611c3b565b820191906000526020600020905b815481529060010190602001808311611c1e57829003601f168201915b50505050509050919050565b6000805433600160a060020a03908116911614611c6357600080fd5b600160a060020a038216600081815260046020908152604091829020805460ff19166001179055815192835290517f8afeca650897be3183b7c0d24eba96a1b990f75c4bd74a0cfb2c0a71aec48e619281900390910190a1506001919050565b600154600160a060020a031681565b60018054600160a060020a03191633600160a060020a0316908117825560009081526004602052604090205460609160ff90911614611d1057600080fd5b600160a060020a0382166000908152600b602090815260409182902080548351601f600260001961010060018616150201909316929092049182018490048402810184019094528084529091830182828015611c3b5780601f10611c1057610100808354040283529160200191611c3b565b60018054600160a060020a03191633600160a060020a03169081178255600090815260046020526040812054909160ff90911614611dbf57600080fd5b602b8890558651611dd790602e9060208a019061385e565b50602c8690558451611df090602f90602088019061385e565b50602d8490558251611e0990603090602086019061385e565b508151611e1d90603190602085019061385e565b50600160a060020a0389166000908152600a60205260409020602b80548255602c54600180840191909155602d54600280850191909155602e8054939493611e79936003860193908216156101000260001901909116046138dc565b5060048201816004019080546001816001161561010002031660029004611ea19291906138dc565b5060058201816005019080546001816001161561010002031660029004611ec99291906138dc565b5060068201816006019080546001816001161561010002031660029004611ef19291906138dc565b5050604080518082018252600481527f444f4e45000000000000000000000000000000000000000000000000000000006020808301918252600160a060020a038e166000908152600b909152929092209051611f50935090919061385e565b5060019998505050505050505050565b60018054600160a060020a03191633600160a060020a03169081178255600090815260046020526040812054909160ff90911614611f9d57600080fd5b60238890558651611fb59060269060208a019061385e565b508551611fc990602790602089019061385e565b50426024558451611fe190602890602088019061385e565b508351611ff590602990602087019061385e565b50825161200990602a90602086019061385e565b506025828155600160a060020a038a166000908152600960205260409020602380548255602454600180840191909155925460028084019190915560268054929461206693600386019391811615610100026000190116046138dc565b506004820181600401908054600181600116156101000203166002900461208e9291906138dc565b50600582018160050190805460018160011615610100020316600290046120b69291906138dc565b50600682018160060190805460018160011615610100020316600290046120de9291906138dc565b50600782018160070190805460018160011615610100020316600290046121069291906138dc565b5050604080518082018252600981527f50524f434553534f5200000000000000000000000000000000000000000000006020808301918252600160a060020a038e166000908152600b909152929092209051611f50935090919061385e565b606080606060006060612176613951565b60018054600160a060020a03191633600160a060020a0316908117825560009081526004602052604090205460ff16146121af57600080fd5b600160a060020a0387166000908152600260208181526040928390208351815460a0601f600019610100600185161502019092169590950490810184900490930281018401909452608084018281529092849284918401828280156122555780601f1061222a57610100808354040283529160200191612255565b820191906000526020600020905b81548152906001019060200180831161223857829003601f168201915b50505050508152602001600182018054600181600116156101000203166002900480601f0160208091040260200160405190810160405280929190818152602001828054600181600116156101000203166002900480156122f75780601f106122cc576101008083540402835291602001916122f7565b820191906000526020600020905b8154815290600101906020018083116122da57829003601f168201915b505050918352505060028281015460ff16151560208084019190915260038401805460408051601f6000196001851615610100020190931695909504918201849004840285018401815281855290940193909183018282801561239b5780601f106123705761010080835404028352916020019161239b565b820191906000526020600020905b81548152906001019060200180831161237e57829003601f168201915b5050509190925250508151602080840151600160a060020a038c1660009081526003835260409081902081870151606088015182548451601f600260001961010060018616150201909316929092049182018890048802810188019095528085529899509597939650909490939092859183018282801561245d5780601f106124325761010080835404028352916020019161245d565b820191906000526020600020905b81548152906001019060200180831161244057829003601f168201915b50505050509250809050955095509550955095505091939590929450565b60005433600160a060020a0390811691161461249657600080fd5b60008054604051600160a060020a03909116917ff8df31144d9c2f0f6b59d69b8b98abd5459d07f2742c4df920b25aae33c6482091a260008054600160a060020a0319169055565b60608060606124eb61397c565b60018054600160a060020a03191633600160a060020a0316908117825560009081526004602052604090205460ff161461252457600080fd5b600160a060020a0385166000908152600660209081526040918290208251815460026001821615610100026000190190911604601f810184900490930281016080908101909452606081018381529093919284928491908401828280156125cc5780601f106125a1576101008083540402835291602001916125cc565b820191906000526020600020905b8154815290600101906020018083116125af57829003601f168201915b50505050508152602001600182018054600181600116156101000203166002900480601f01602080910402602001604051908101604052809291908181526020018280546001816001161561010002031660029004801561266e5780601f106126435761010080835404028352916020019161266e565b820191906000526020600020905b81548152906001019060200180831161265157829003601f168201915b5050509183525050600282810180546040805160206001841615610100026000190190931694909404601f810183900483028501830190915280845293810193908301828280156127005780601f106126d557610100808354040283529160200191612700565b820191906000526020600020905b8154815290600101906020018083116126e357829003601f168201915b5050509190925250508151602083015160409093015190989297509550909350505050565b600054600160a060020a031681565b60018054600160a060020a03191633600160a060020a03169081178255600090815260046020526040812054909160ff9091161461277157600080fd5b601e879055855161278990601b90602089019061385e565b50845161279d90601c90602088019061385e565b5083516127b190601d90602087019061385e565b5042601f5560208381556022839055600160a060020a0389166000908152600890915260409020601b80549091906127ff9082908490600261010060018316150260001901909116046138dc565b50600182018160010190805460018160011615610100020316600290046128279291906138dc565b506002828101805461284c9284810192916000196101006001831615020116046138dc565b5060038281015490820155600480830154908201556005808301549082015560068083015490820155600791820154910155604080518082018252600881527f494d504f525445520000000000000000000000000000000000000000000000006020808301918252600160a060020a038c166000908152600b9091529290922090516128d8929061385e565b50600198975050505050505050565b600060606000606060006060806128fc61399e565b60018054600160a060020a03191633600160a060020a0316908117825560009081526004602052604090205460ff161461293557600080fd5b600160a060020a0389166000908152600a6020908152604091829020825160e08101845281548152600180830154828501526002808401548387015260038401805487519381161561010002600019011691909104601f8101869004860283018601909652858252919492936060860193919291908301828280156129fb5780601f106129d0576101008083540402835291602001916129fb565b820191906000526020600020905b8154815290600101906020018083116129de57829003601f168201915b505050918352505060048201805460408051602060026001851615610100026000190190941693909304601f8101849004840282018401909252818152938201939291830182828015612a8f5780601f10612a6457610100808354040283529160200191612a8f565b820191906000526020600020905b815481529060010190602001808311612a7257829003601f168201915b505050918352505060058201805460408051602060026001851615610100026000190190941693909304601f8101849004840282018401909252818152938201939291830182828015612b235780601f10612af857610100808354040283529160200191612b23565b820191906000526020600020905b815481529060010190602001808311612b0657829003601f168201915b505050918352505060068201805460408051602060026001851615610100026000190190941693909304601f8101849004840282018401909252818152938201939291830182828015612bb75780601f10612b8c57610100808354040283529160200191612bb7565b820191906000526020600020905b815481529060010190602001808311612b9a57829003601f168201915b5050509190925250508151606083015160208401516080850151604086015160a087015160c0880151959f50939d50919b5099509750955093509091505050919395979092949650565b6060806060612c0e61397c565b60018054600160a060020a03191633600160a060020a0316908117825560009081526004602052604090205460ff1614612c4757600080fd5b600160a060020a0385166000908152600760209081526040918290208251815460026001821615610100026000190190911604601f810184900490930281016080908101909452606081018381529093919284928491908401828280156125cc5780601f106125a1576101008083540402835291602001916125cc565b60018054600160a060020a03191633600160a060020a0316908117825560009081526004602052604081205490918291829160ff90911614612d0557600080fd5b5050604080516c01000000000000000000000000600160a060020a033316028152426014820152905190819003603401902086518190612d4c9060109060208b019061385e565b508651612d609060119060208a019061385e565b508551612d7490601290602089019061385e565b508451612d8890601390602088019061385e565b508351612d9c90601490602087019061385e565b50600160a060020a038116600090815260056020526040902060108054909190612ddc9082908490600260001961010060018416150201909116046138dc565b5060018201816001019080546001816001161561010002031660029004612e049291906138dc565b5060028281018054612e299284810192916000196101006001831615020116046138dc565b5060038201816003019080546001816001161561010002031660029004612e519291906138dc565b5060048201816004019080546001816001161561010002031660029004612e799291906138dc565b5050604080518082018252600f81527f4641524d5f494e5350454354494f4e00000000000000000000000000000000006020808301918252600160a060020a0386166000908152600b909152929092209051612ed8935090919061385e565b50979650505050505050565b6060806060806060612ef46139dc565b60018054600160a060020a03191633600160a060020a0316908117825560009081526004602052604090205460ff1614612f2d57600080fd5b600160a060020a0387166000908152600560209081526040918290208251815460026001821615610100026000190190911604601f8101849004909302810160c090810190945260a08101838152909391928492849190840182828015612fd55780601f10612faa57610100808354040283529160200191612fd5565b820191906000526020600020905b815481529060010190602001808311612fb857829003601f168201915b50505050508152602001600182018054600181600116156101000203166002900480601f0160208091040260200160405190810160405280929190818152602001828054600181600116156101000203166002900480156130775780601f1061304c57610100808354040283529160200191613077565b820191906000526020600020905b81548152906001019060200180831161305a57829003601f168201915b5050509183525050600282810180546040805160206001841615610100026000190190931694909404601f810183900483028501830190915280845293810193908301828280156131095780601f106130de57610100808354040283529160200191613109565b820191906000526020600020905b8154815290600101906020018083116130ec57829003601f168201915b505050918352505060038201805460408051602060026001851615610100026000190190941693909304601f810184900484028201840190925281815293820193929183018282801561319d5780601f106131725761010080835404028352916020019161319d565b820191906000526020600020905b81548152906001019060200180831161318057829003601f168201915b505050918352505060048201805460408051602060026001851615610100026000190190941693909304601f81018490048402820184019092528181529382019392918301828280156132315780601f1061320657610100808354040283529160200191613231565b820191906000526020600020905b81548152906001019060200180831161321457829003601f168201915b5050509190925250508151602083015160408401516060850151608090950151929c919b5099509297509550909350505050565b60005433600160a060020a0390811691161461328057600080fd5b600160a060020a038116151561329557600080fd5b60008054604051600160a060020a03808516939216917f8be0079c531659141344cd1fd0a4f28419497f9722a3daafe3b4186f6b6457e091a360008054600160a060020a031916600160a060020a0392909216919091179055565b60018054600160a060020a03191633600160a060020a03169081178255600090815260046020526040812054909160ff9091161461332d57600080fd5b855161334090600c90602089019061385e565b50845161335490600d90602088019061385e565b50600e805460ff1916841515179055815161337690600f90602085019061385e565b50600160a060020a0387166000908152600260208190526040909120600c805490926133b491839185916000196101006001831615020116046138dc565b50600182018160010190805460018160011615610100020316600290046133dc9291906138dc565b50600282810154828201805460ff191660ff90921615159190911790556003808401805461341e939285019261010060018316150260001901909116046138dc565b505050600160a060020a0387166000908152600360209081526040909120855161344a9287019061385e565b506001979650505050505050565b600060608060006060806060600061346e613a0c565b60018054600160a060020a03191633600160a060020a0316908117825560009081526004602052604090205460ff16146134a757600080fd5b600160a060020a038a16600090815260096020908152604091829020825161010080820185528254825260018084015483860152600280850154848801526003850180548851938116159094026000190190931604601f81018690048602820186019096528581529194929360608601939083018282801561356a5780601f1061353f5761010080835404028352916020019161356a565b820191906000526020600020905b81548152906001019060200180831161354d57829003601f168201915b505050918352505060048201805460408051602060026001851615610100026000190190941693909304601f81018490048402820184019092528181529382019392918301828280156135fe5780601f106135d3576101008083540402835291602001916135fe565b820191906000526020600020905b8154815290600101906020018083116135e157829003601f168201915b505050918352505060058201805460408051602060026001851615610100026000190190941693909304601f81018490048402820184019092528181529382019392918301828280156136925780601f1061366757610100808354040283529160200191613692565b820191906000526020600020905b81548152906001019060200180831161367557829003601f168201915b505050918352505060068201805460408051602060026001851615610100026000190190941693909304601f81018490048402820184019092528181529382019392918301828280156137265780601f106136fb57610100808354040283529160200191613726565b820191906000526020600020905b81548152906001019060200180831161370957829003601f168201915b505050918352505060078201805460408051602060026001851615610100026000190190941693909304601f81018490048402820184019092528181529382019392918301828280156137ba5780601f1061378f576101008083540402835291602001916137ba565b820191906000526020600020905b81548152906001019060200180831161379d57829003601f168201915b505050505081525050905080600001518160600151826080015183602001518460a001518560c001518660e0015187604001518696508595508393508292508191509850985098509850985098509850985050919395975091939597565b6101006040519081016040528060608152602001606081526020016060815260200160008152602001600081526020016000815260200160008152602001600081525090565b828054600181600116156101000203166002900490600052602060002090601f016020900481019282601f1061389f57805160ff19168380011785556138cc565b828001600101855582156138cc579182015b828111156138cc5782518255916020019190600101906138b1565b506138d8929150613a52565b5090565b828054600181600116156101000203166002900490600052602060002090601f016020900481019282601f1061391557805485556138cc565b828001600101855582156138cc57600052602060002091601f016020900482015b828111156138cc578254825591600101919060010190613936565b6080604051908101604052806060815260200160608152602001600015158152602001606081525090565b6060604051908101604052806060815260200160608152602001606081525090565b60e060405190810160405280600081526020016000815260200160008152602001606081526020016060815260200160608152602001606081525090565b60a06040519081016040528060608152602001606081526020016060815260200160608152602001606081525090565b6101006040519081016040528060008152602001600081526020016000815260200160608152602001606081526020016060815260200160608152602001606081525090565b613a6c91905b808211156138d85760008155600101613a58565b905600a165627a7a723058208f5ea86925ac61a97613a2e5a6cf19d84ebea2a05fa6048a4a7ede7364c3451b0029",
    "sourcePath": "m:/greechain/ethereum/contracts/SupplyChainStorage.sol",
    "compiler": {
        "name": "solc",
        "version": "0.4.23+commit.124ca40d"
    },
    "functionHashes": {
        "authorizeCaller(address)": "2c388d5d",
        "deAuthorizeCaller(address)": "1bcd250a",
        "getBasicDetails(address)": "f2997d76",
        "getExporterData(address)": "06ecd6d4",
        "getFarmInspectorData(address)": "7f89e94b",
        "getHarvesterData(address)": "ca5322e5",
        "getImporterData(address)": "febd0492",
        "getNextAction(address)": "4d6b5e00",
        "getProcessorData(address)": "b6959d73",
        "getUser(address)": "6f77926b",
        "getUserRole(address)": "27820851",
        "lastAccess()": "3480898b",
        "owner()": "8da5cb5b",
        "renounceOwnership()": "715018a6",
        "setBasicDetails(string,string,string,string,string)": "cf374674",
        "setExporterData(address,uint256,string,string,string,uint256,uint256)": "b51a3216",
        "setFarmInspectorData(address,string,string,string)": "1dbcddf4",
        "setHarvesterData(address,string,string,string)": "0ab36749",
        "setImporterData(address,uint256,string,string,string,string,string,uint256)": "6115eec2",
        "setProcessorData(address,uint256,string,uint256,string,uint256,string,string)": "53a7571f",
        "setUser(address,string,string,string,bool,string)": "fb7a20af",
        "transferOwnership(address)": "f2fde38b"
    },
    "gasEstimates": {
        "creation": {
            "codeDepositCost": "3000600",
            "executionCost": "45023",
            "totalCost": "3045623"
        },
        "external": {
            "authorizeCaller(address)": "22134",
            "deAuthorizeCaller(address)": "22062",
            "getBasicDetails(address)": "infinite",
            "getExporterData(address)": "infinite",
            "getFarmInspectorData(address)": "infinite",
            "getHarvesterData(address)": "infinite",
            "getImporterData(address)": "infinite",
            "getNextAction(address)": "infinite",
            "getProcessorData(address)": "infinite",
            "getUser(address)": "infinite",
            "getUserRole(address)": "infinite",
            "lastAccess()": "669",
            "owner()": "823",
            "renounceOwnership()": "22395",
            "setBasicDetails(string,string,string,string,string)": "infinite",
            "setExporterData(address,uint256,string,string,string,uint256,uint256)": "infinite",
            "setFarmInspectorData(address,string,string,string)": "infinite",
            "setHarvesterData(address,string,string,string)": "infinite",
            "setImporterData(address,uint256,string,string,string,string,string,uint256)": "infinite",
            "setProcessorData(address,uint256,string,uint256,string,uint256,string,string)": "infinite",
            "setUser(address,string,string,string,bool,string)": "infinite",
            "transferOwnership(address)": "23230"
        }
    }
}